{"abi":[{"inputs":[],"stateMutability":"nonpayable","type":"constructor"},{"anonymous":false,"inputs":[{"indexed":true,"internalType":"address","name":"owner","type":"address"},{"indexed":true,"internalType":"address","name":"spender","type":"address"},{"indexed":false,"internalType":"uint256","name":"value","type":"uint256"}],"name":"Approval","type":"event"},{"anonymous":false,"inputs":[{"indexed":true,"internalType":"address","name":"from","type":"address"},{"indexed":true,"internalType":"address","name":"to","type":"address"},{"indexed":false,"internalType":"uint256","name":"value","type":"uint256"}],"name":"Transfer","type":"event"},{"inputs":[{"internalType":"address","name":"owner","type":"address"},{"internalType":"address","name":"delegate","type":"address"}],"name":"allowance","outputs":[{"internalType":"uint256","name":"","type":"uint256"}],"stateMutability":"view","type":"function"},{"inputs":[{"internalType":"address","name":"delegate","type":"address"},{"internalType":"uint256","name":"numTokens","type":"uint256"}],"name":"approve","outputs":[{"internalType":"bool","name":"","type":"bool"}],"stateMutability":"nonpayable","type":"function"},{"inputs":[{"internalType":"address","name":"tokenOwner","type":"address"}],"name":"balanceOf","outputs":[{"internalType":"uint256","name":"","type":"uint256"}],"stateMutability":"view","type":"function"},{"inputs":[],"name":"decimals","outputs":[{"internalType":"uint8","name":"","type":"uint8"}],"stateMutability":"view","type":"function"},{"inputs":[],"name":"name","outputs":[{"internalType":"string","name":"","type":"string"}],"stateMutability":"view","type":"function"},{"inputs":[],"name":"symbol","outputs":[{"internalType":"string","name":"","type":"string"}],"stateMutability":"view","type":"function"},{"inputs":[],"name":"total","outputs":[{"internalType":"uint256","name":"","type":"uint256"}],"stateMutability":"view","type":"function"},{"inputs":[],"name":"totalSupply","outputs":[{"internalType":"uint256","name":"","type":"uint256"}],"stateMutability":"view","type":"function"},{"inputs":[{"internalType":"address","name":"receiver","type":"address"},{"internalType":"uint256","name":"numTokens","type":"uint256"}],"name":"transfer","outputs":[{"internalType":"bool","name":"","type":"bool"}],"stateMutability":"nonpayable","type":"function"},{"inputs":[{"internalType":"address","name":"owner","type":"address"},{"internalType":"address","name":"buyer","type":"address"},{"internalType":"uint256","name":"numTokens","type":"uint256"}],"name":"transferFrom","outputs":[{"internalType":"bool","name":"","type":"bool"}],"stateMutability":"nonpayable","type":"function"}],"devdoc":{"kind":"dev","methods":{},"version":1},"evm":{"assembly":"    /* \"moricheCoin.sol\":702:2842  contract MoriCoin is IERC20 {\r... */\n  mstore(0x40, 0x80)\n    /* \"moricheCoin.sol\":1264:1370  constructor() public {\r... */\n  callvalue\n  dup1\n  iszero\n  tag_1\n  jumpi\n  0x00\n  dup1\n  revert\ntag_1:\n  pop\n    /* \"moricheCoin.sol\":908:920  180000000000 */\n  0x29e8d60800\n    /* \"moricheCoin.sol\":1296:1308  totalSupply_ */\n  0x02\n    /* \"moricheCoin.sol\":1296:1316  totalSupply_ = total */\n  dup2\n  swap1\n  sstore\n  pop\n    /* \"moricheCoin.sol\":1350:1362  totalSupply_ */\n  sload(0x02)\n    /* \"moricheCoin.sol\":1327:1335  balances */\n  0x00\n    /* \"moricheCoin.sol\":1327:1347  balances[msg.sender] */\n  dup1\n    /* \"moricheCoin.sol\":1336:1346  msg.sender */\n  caller\n    /* \"moricheCoin.sol\":1327:1347  balances[msg.sender] */\n  0xffffffffffffffffffffffffffffffffffffffff\n  and\n  0xffffffffffffffffffffffffffffffffffffffff\n  and\n  dup2\n  mstore\n  0x20\n  add\n  swap1\n  dup2\n  mstore\n  0x20\n  add\n  0x00\n  keccak256\n    /* \"moricheCoin.sol\":1327:1362  balances[msg.sender] = totalSupply_ */\n  dup2\n  swap1\n  sstore\n  pop\n    /* \"moricheCoin.sol\":702:2842  contract MoriCoin is IERC20 {\r... */\n  dataSize(sub_0)\n  dup1\n  dataOffset(sub_0)\n  0x00\n  codecopy\n  0x00\n  return\nstop\n\nsub_0: assembly {\n        /* \"moricheCoin.sol\":702:2842  contract MoriCoin is IERC20 {\r... */\n      mstore(0x40, 0x80)\n      callvalue\n      dup1\n      iszero\n      tag_1\n      jumpi\n      0x00\n      dup1\n      revert\n    tag_1:\n      pop\n      jumpi(tag_2, lt(calldatasize, 0x04))\n      shr(0xe0, calldataload(0x00))\n      dup1\n      0x313ce567\n      gt\n      tag_13\n      jumpi\n      dup1\n      0x313ce567\n      eq\n      tag_8\n      jumpi\n      dup1\n      0x70a08231\n      eq\n      tag_9\n      jumpi\n      dup1\n      0x95d89b41\n      eq\n      tag_10\n      jumpi\n      dup1\n      0xa9059cbb\n      eq\n      tag_11\n      jumpi\n      dup1\n      0xdd62ed3e\n      eq\n      tag_12\n      jumpi\n      jump(tag_2)\n    tag_13:\n      dup1\n      0x06fdde03\n      eq\n      tag_3\n      jumpi\n      dup1\n      0x095ea7b3\n      eq\n      tag_4\n      jumpi\n      dup1\n      0x18160ddd\n      eq\n      tag_5\n      jumpi\n      dup1\n      0x23b872dd\n      eq\n      tag_6\n      jumpi\n      dup1\n      0x2ddbd13a\n      eq\n      tag_7\n      jumpi\n    tag_2:\n      0x00\n      dup1\n      revert\n        /* \"moricheCoin.sol\":737:781  string public constant name = \"MORICHE COIN\" */\n    tag_3:\n      tag_14\n      tag_15\n      jump\t// in\n    tag_14:\n      mload(0x40)\n      tag_16\n      swap2\n      swap1\n      tag_17\n      jump\t// in\n    tag_16:\n      mload(0x40)\n      dup1\n      swap2\n      sub\n      swap1\n      return\n        /* \"moricheCoin.sol\":1978:2202  function approve(address delegate, uint256 numTokens) public override returns (bool) {\r... */\n    tag_4:\n      tag_18\n      0x04\n      dup1\n      calldatasize\n      sub\n      dup2\n      add\n      swap1\n      tag_19\n      swap2\n      swap1\n      tag_20\n      jump\t// in\n    tag_19:\n      tag_21\n      jump\t// in\n    tag_18:\n      mload(0x40)\n      tag_22\n      swap2\n      swap1\n      tag_23\n      jump\t// in\n    tag_22:\n      mload(0x40)\n      dup1\n      swap2\n      sub\n      swap1\n      return\n        /* \"moricheCoin.sol\":1376:1476  function totalSupply() public override view returns (uint256) {\r... */\n    tag_5:\n      tag_24\n      tag_25\n      jump\t// in\n    tag_24:\n      mload(0x40)\n      tag_26\n      swap2\n      swap1\n      tag_27\n      jump\t// in\n    tag_26:\n      mload(0x40)\n      dup1\n      swap2\n      sub\n      swap1\n      return\n        /* \"moricheCoin.sol\":2352:2839  function transferFrom(address owner, address buyer, uint256 numTokens) public override returns (bool) {\r... */\n    tag_6:\n      tag_28\n      0x04\n      dup1\n      calldatasize\n      sub\n      dup2\n      add\n      swap1\n      tag_29\n      swap2\n      swap1\n      tag_30\n      jump\t// in\n    tag_29:\n      tag_31\n      jump\t// in\n    tag_28:\n      mload(0x40)\n      tag_32\n      swap2\n      swap1\n      tag_23\n      jump\t// in\n    tag_32:\n      mload(0x40)\n      dup1\n      swap2\n      sub\n      swap1\n      return\n        /* \"moricheCoin.sol\":876:920  uint256 public constant total = 180000000000 */\n    tag_7:\n      tag_33\n      tag_34\n      jump\t// in\n    tag_33:\n      mload(0x40)\n      tag_35\n      swap2\n      swap1\n      tag_27\n      jump\t// in\n    tag_35:\n      mload(0x40)\n      dup1\n      swap2\n      sub\n      swap1\n      return\n        /* \"moricheCoin.sol\":834:869  uint8 public constant decimals = 18 */\n    tag_8:\n      tag_36\n      tag_37\n      jump\t// in\n    tag_36:\n      mload(0x40)\n      tag_38\n      swap2\n      swap1\n      tag_39\n      jump\t// in\n    tag_38:\n      mload(0x40)\n      dup1\n      swap2\n      sub\n      swap1\n      return\n        /* \"moricheCoin.sol\":1482:1606  function balanceOf(address tokenOwner) public override view returns (uint256) {\r... */\n    tag_9:\n      tag_40\n      0x04\n      dup1\n      calldatasize\n      sub\n      dup2\n      add\n      swap1\n      tag_41\n      swap2\n      swap1\n      tag_42\n      jump\t// in\n    tag_41:\n      tag_43\n      jump\t// in\n    tag_40:\n      mload(0x40)\n      tag_44\n      swap2\n      swap1\n      tag_27\n      jump\t// in\n    tag_44:\n      mload(0x40)\n      dup1\n      swap2\n      sub\n      swap1\n      return\n        /* \"moricheCoin.sol\":788:827  string public constant symbol = \"MORIc\" */\n    tag_10:\n      tag_45\n      tag_46\n      jump\t// in\n    tag_45:\n      mload(0x40)\n      tag_47\n      swap2\n      swap1\n      tag_17\n      jump\t// in\n    tag_47:\n      mload(0x40)\n      dup1\n      swap2\n      sub\n      swap1\n      return\n        /* \"moricheCoin.sol\":1612:1972  function transfer(address receiver, uint256 numTokens) public override returns (bool) {\r... */\n    tag_11:\n      tag_48\n      0x04\n      dup1\n      calldatasize\n      sub\n      dup2\n      add\n      swap1\n      tag_49\n      swap2\n      swap1\n      tag_20\n      jump\t// in\n    tag_49:\n      tag_50\n      jump\t// in\n    tag_48:\n      mload(0x40)\n      tag_51\n      swap2\n      swap1\n      tag_23\n      jump\t// in\n    tag_51:\n      mload(0x40)\n      dup1\n      swap2\n      sub\n      swap1\n      return\n        /* \"moricheCoin.sol\":2208:2346  function allowance(address owner, address delegate) public override view returns (uint) {\r... */\n    tag_12:\n      tag_52\n      0x04\n      dup1\n      calldatasize\n      sub\n      dup2\n      add\n      swap1\n      tag_53\n      swap2\n      swap1\n      tag_54\n      jump\t// in\n    tag_53:\n      tag_55\n      jump\t// in\n    tag_52:\n      mload(0x40)\n      tag_56\n      swap2\n      swap1\n      tag_27\n      jump\t// in\n    tag_56:\n      mload(0x40)\n      dup1\n      swap2\n      sub\n      swap1\n      return\n        /* \"moricheCoin.sol\":737:781  string public constant name = \"MORICHE COIN\" */\n    tag_15:\n      mload(0x40)\n      dup1\n      0x40\n      add\n      0x40\n      mstore\n      dup1\n      0x0c\n      dup2\n      mstore\n      0x20\n      add\n      0x4d4f524943484520434f494e0000000000000000000000000000000000000000\n      dup2\n      mstore\n      pop\n      dup2\n      jump\t// out\n        /* \"moricheCoin.sol\":1978:2202  function approve(address delegate, uint256 numTokens) public override returns (bool) {\r... */\n    tag_21:\n        /* \"moricheCoin.sol\":2057:2061  bool */\n      0x00\n        /* \"moricheCoin.sol\":2106:2115  numTokens */\n      dup2\n        /* \"moricheCoin.sol\":2074:2081  allowed */\n      0x01\n        /* \"moricheCoin.sol\":2074:2093  allowed[msg.sender] */\n      0x00\n        /* \"moricheCoin.sol\":2082:2092  msg.sender */\n      caller\n        /* \"moricheCoin.sol\":2074:2093  allowed[msg.sender] */\n      0xffffffffffffffffffffffffffffffffffffffff\n      and\n      0xffffffffffffffffffffffffffffffffffffffff\n      and\n      dup2\n      mstore\n      0x20\n      add\n      swap1\n      dup2\n      mstore\n      0x20\n      add\n      0x00\n      keccak256\n        /* \"moricheCoin.sol\":2074:2103  allowed[msg.sender][delegate] */\n      0x00\n        /* \"moricheCoin.sol\":2094:2102  delegate */\n      dup6\n        /* \"moricheCoin.sol\":2074:2103  allowed[msg.sender][delegate] */\n      0xffffffffffffffffffffffffffffffffffffffff\n      and\n      0xffffffffffffffffffffffffffffffffffffffff\n      and\n      dup2\n      mstore\n      0x20\n      add\n      swap1\n      dup2\n      mstore\n      0x20\n      add\n      0x00\n      keccak256\n        /* \"moricheCoin.sol\":2074:2115  allowed[msg.sender][delegate] = numTokens */\n      dup2\n      swap1\n      sstore\n      pop\n        /* \"moricheCoin.sol\":2152:2160  delegate */\n      dup3\n        /* \"moricheCoin.sol\":2131:2172  Approval(msg.sender, delegate, numTokens) */\n      0xffffffffffffffffffffffffffffffffffffffff\n      and\n        /* \"moricheCoin.sol\":2140:2150  msg.sender */\n      caller\n        /* \"moricheCoin.sol\":2131:2172  Approval(msg.sender, delegate, numTokens) */\n      0xffffffffffffffffffffffffffffffffffffffff\n      and\n      0x8c5be1e5ebec7d5bd14f71427d1e84f3dd0314c0f7b2291e5b200ac8c7c3b925\n        /* \"moricheCoin.sol\":2162:2171  numTokens */\n      dup5\n        /* \"moricheCoin.sol\":2131:2172  Approval(msg.sender, delegate, numTokens) */\n      mload(0x40)\n      tag_58\n      swap2\n      swap1\n      tag_27\n      jump\t// in\n    tag_58:\n      mload(0x40)\n      dup1\n      swap2\n      sub\n      swap1\n      log3\n        /* \"moricheCoin.sol\":2190:2194  true */\n      0x01\n        /* \"moricheCoin.sol\":2183:2194  return true */\n      swap1\n      pop\n        /* \"moricheCoin.sol\":1978:2202  function approve(address delegate, uint256 numTokens) public override returns (bool) {\r... */\n      swap3\n      swap2\n      pop\n      pop\n      jump\t// out\n        /* \"moricheCoin.sol\":1376:1476  function totalSupply() public override view returns (uint256) {\r... */\n    tag_25:\n        /* \"moricheCoin.sol\":1429:1436  uint256 */\n      0x00\n        /* \"moricheCoin.sol\":1456:1468  totalSupply_ */\n      sload(0x02)\n        /* \"moricheCoin.sol\":1449:1468  return totalSupply_ */\n      swap1\n      pop\n        /* \"moricheCoin.sol\":1376:1476  function totalSupply() public override view returns (uint256) {\r... */\n      swap1\n      jump\t// out\n        /* \"moricheCoin.sol\":2352:2839  function transferFrom(address owner, address buyer, uint256 numTokens) public override returns (bool) {\r... */\n    tag_31:\n        /* \"moricheCoin.sol\":2448:2452  bool */\n      0x00\n        /* \"moricheCoin.sol\":2486:2494  balances */\n      dup1\n        /* \"moricheCoin.sol\":2486:2501  balances[owner] */\n      0x00\n        /* \"moricheCoin.sol\":2495:2500  owner */\n      dup6\n        /* \"moricheCoin.sol\":2486:2501  balances[owner] */\n      0xffffffffffffffffffffffffffffffffffffffff\n      and\n      0xffffffffffffffffffffffffffffffffffffffff\n      and\n      dup2\n      mstore\n      0x20\n      add\n      swap1\n      dup2\n      mstore\n      0x20\n      add\n      0x00\n      keccak256\n      sload\n        /* \"moricheCoin.sol\":2473:2482  numTokens */\n      dup3\n        /* \"moricheCoin.sol\":2473:2501  numTokens <= balances[owner] */\n      gt\n      iszero\n        /* \"moricheCoin.sol\":2465:2502  require(numTokens <= balances[owner]) */\n      tag_61\n      jumpi\n      0x00\n      dup1\n      revert\n    tag_61:\n        /* \"moricheCoin.sol\":2534:2541  allowed */\n      0x01\n        /* \"moricheCoin.sol\":2534:2548  allowed[owner] */\n      0x00\n        /* \"moricheCoin.sol\":2542:2547  owner */\n      dup6\n        /* \"moricheCoin.sol\":2534:2548  allowed[owner] */\n      0xffffffffffffffffffffffffffffffffffffffff\n      and\n      0xffffffffffffffffffffffffffffffffffffffff\n      and\n      dup2\n      mstore\n      0x20\n      add\n      swap1\n      dup2\n      mstore\n      0x20\n      add\n      0x00\n      keccak256\n        /* \"moricheCoin.sol\":2534:2560  allowed[owner][msg.sender] */\n      0x00\n        /* \"moricheCoin.sol\":2549:2559  msg.sender */\n      caller\n        /* \"moricheCoin.sol\":2534:2560  allowed[owner][msg.sender] */\n      0xffffffffffffffffffffffffffffffffffffffff\n      and\n      0xffffffffffffffffffffffffffffffffffffffff\n      and\n      dup2\n      mstore\n      0x20\n      add\n      swap1\n      dup2\n      mstore\n      0x20\n      add\n      0x00\n      keccak256\n      sload\n        /* \"moricheCoin.sol\":2521:2530  numTokens */\n      dup3\n        /* \"moricheCoin.sol\":2521:2560  numTokens <= allowed[owner][msg.sender] */\n      gt\n      iszero\n        /* \"moricheCoin.sol\":2513:2561  require(numTokens <= allowed[owner][msg.sender]) */\n      tag_62\n      jumpi\n      0x00\n      dup1\n      revert\n    tag_62:\n        /* \"moricheCoin.sol\":2590:2620  balances[owner].sub(numTokens) */\n      tag_63\n        /* \"moricheCoin.sol\":2610:2619  numTokens */\n      dup3\n        /* \"moricheCoin.sol\":2590:2598  balances */\n      0x00\n        /* \"moricheCoin.sol\":2590:2605  balances[owner] */\n      dup1\n        /* \"moricheCoin.sol\":2599:2604  owner */\n      dup8\n        /* \"moricheCoin.sol\":2590:2605  balances[owner] */\n      0xffffffffffffffffffffffffffffffffffffffff\n      and\n      0xffffffffffffffffffffffffffffffffffffffff\n      and\n      dup2\n      mstore\n      0x20\n      add\n      swap1\n      dup2\n      mstore\n      0x20\n      add\n      0x00\n      keccak256\n      sload\n        /* \"moricheCoin.sol\":2590:2609  balances[owner].sub */\n      tag_64\n      swap1\n        /* \"moricheCoin.sol\":2590:2620  balances[owner].sub(numTokens) */\n      swap2\n      swap1\n      0xffffffff\n      and\n      jump\t// in\n    tag_63:\n        /* \"moricheCoin.sol\":2572:2580  balances */\n      0x00\n        /* \"moricheCoin.sol\":2572:2587  balances[owner] */\n      dup1\n        /* \"moricheCoin.sol\":2581:2586  owner */\n      dup7\n        /* \"moricheCoin.sol\":2572:2587  balances[owner] */\n      0xffffffffffffffffffffffffffffffffffffffff\n      and\n      0xffffffffffffffffffffffffffffffffffffffff\n      and\n      dup2\n      mstore\n      0x20\n      add\n      swap1\n      dup2\n      mstore\n      0x20\n      add\n      0x00\n      keccak256\n        /* \"moricheCoin.sol\":2572:2620  balances[owner] = balances[owner].sub(numTokens) */\n      dup2\n      swap1\n      sstore\n      pop\n        /* \"moricheCoin.sol\":2660:2701  allowed[owner][msg.sender].sub(numTokens) */\n      tag_65\n        /* \"moricheCoin.sol\":2691:2700  numTokens */\n      dup3\n        /* \"moricheCoin.sol\":2660:2667  allowed */\n      0x01\n        /* \"moricheCoin.sol\":2660:2674  allowed[owner] */\n      0x00\n        /* \"moricheCoin.sol\":2668:2673  owner */\n      dup8\n        /* \"moricheCoin.sol\":2660:2674  allowed[owner] */\n      0xffffffffffffffffffffffffffffffffffffffff\n      and\n      0xffffffffffffffffffffffffffffffffffffffff\n      and\n      dup2\n      mstore\n      0x20\n      add\n      swap1\n      dup2\n      mstore\n      0x20\n      add\n      0x00\n      keccak256\n        /* \"moricheCoin.sol\":2660:2686  allowed[owner][msg.sender] */\n      0x00\n        /* \"moricheCoin.sol\":2675:2685  msg.sender */\n      caller\n        /* \"moricheCoin.sol\":2660:2686  allowed[owner][msg.sender] */\n      0xffffffffffffffffffffffffffffffffffffffff\n      and\n      0xffffffffffffffffffffffffffffffffffffffff\n      and\n      dup2\n      mstore\n      0x20\n      add\n      swap1\n      dup2\n      mstore\n      0x20\n      add\n      0x00\n      keccak256\n      sload\n        /* \"moricheCoin.sol\":2660:2690  allowed[owner][msg.sender].sub */\n      tag_64\n      swap1\n        /* \"moricheCoin.sol\":2660:2701  allowed[owner][msg.sender].sub(numTokens) */\n      swap2\n      swap1\n      0xffffffff\n      and\n      jump\t// in\n    tag_65:\n        /* \"moricheCoin.sol\":2631:2638  allowed */\n      0x01\n        /* \"moricheCoin.sol\":2631:2645  allowed[owner] */\n      0x00\n        /* \"moricheCoin.sol\":2639:2644  owner */\n      dup7\n        /* \"moricheCoin.sol\":2631:2645  allowed[owner] */\n      0xffffffffffffffffffffffffffffffffffffffff\n      and\n      0xffffffffffffffffffffffffffffffffffffffff\n      and\n      dup2\n      mstore\n      0x20\n      add\n      swap1\n      dup2\n      mstore\n      0x20\n      add\n      0x00\n      keccak256\n        /* \"moricheCoin.sol\":2631:2657  allowed[owner][msg.sender] */\n      0x00\n        /* \"moricheCoin.sol\":2646:2656  msg.sender */\n      caller\n        /* \"moricheCoin.sol\":2631:2657  allowed[owner][msg.sender] */\n      0xffffffffffffffffffffffffffffffffffffffff\n      and\n      0xffffffffffffffffffffffffffffffffffffffff\n      and\n      dup2\n      mstore\n      0x20\n      add\n      swap1\n      dup2\n      mstore\n      0x20\n      add\n      0x00\n      keccak256\n        /* \"moricheCoin.sol\":2631:2701  allowed[owner][msg.sender] = allowed[owner][msg.sender].sub(numTokens) */\n      dup2\n      swap1\n      sstore\n      pop\n        /* \"moricheCoin.sol\":2730:2760  balances[buyer].add(numTokens) */\n      tag_66\n        /* \"moricheCoin.sol\":2750:2759  numTokens */\n      dup3\n        /* \"moricheCoin.sol\":2730:2738  balances */\n      0x00\n        /* \"moricheCoin.sol\":2730:2745  balances[buyer] */\n      dup1\n        /* \"moricheCoin.sol\":2739:2744  buyer */\n      dup7\n        /* \"moricheCoin.sol\":2730:2745  balances[buyer] */\n      0xffffffffffffffffffffffffffffffffffffffff\n      and\n      0xffffffffffffffffffffffffffffffffffffffff\n      and\n      dup2\n      mstore\n      0x20\n      add\n      swap1\n      dup2\n      mstore\n      0x20\n      add\n      0x00\n      keccak256\n      sload\n        /* \"moricheCoin.sol\":2730:2749  balances[buyer].add */\n      tag_67\n      swap1\n        /* \"moricheCoin.sol\":2730:2760  balances[buyer].add(numTokens) */\n      swap2\n      swap1\n      0xffffffff\n      and\n      jump\t// in\n    tag_66:\n        /* \"moricheCoin.sol\":2712:2720  balances */\n      0x00\n        /* \"moricheCoin.sol\":2712:2727  balances[buyer] */\n      dup1\n        /* \"moricheCoin.sol\":2721:2726  buyer */\n      dup6\n        /* \"moricheCoin.sol\":2712:2727  balances[buyer] */\n      0xffffffffffffffffffffffffffffffffffffffff\n      and\n      0xffffffffffffffffffffffffffffffffffffffff\n      and\n      dup2\n      mstore\n      0x20\n      add\n      swap1\n      dup2\n      mstore\n      0x20\n      add\n      0x00\n      keccak256\n        /* \"moricheCoin.sol\":2712:2760  balances[buyer] = balances[buyer].add(numTokens) */\n      dup2\n      swap1\n      sstore\n      pop\n        /* \"moricheCoin.sol\":2792:2797  buyer */\n      dup3\n        /* \"moricheCoin.sol\":2776:2809  Transfer(owner, buyer, numTokens) */\n      0xffffffffffffffffffffffffffffffffffffffff\n      and\n        /* \"moricheCoin.sol\":2785:2790  owner */\n      dup5\n        /* \"moricheCoin.sol\":2776:2809  Transfer(owner, buyer, numTokens) */\n      0xffffffffffffffffffffffffffffffffffffffff\n      and\n      0xddf252ad1be2c89b69c2b068fc378daa952ba7f163c4a11628f55a4df523b3ef\n        /* \"moricheCoin.sol\":2799:2808  numTokens */\n      dup5\n        /* \"moricheCoin.sol\":2776:2809  Transfer(owner, buyer, numTokens) */\n      mload(0x40)\n      tag_68\n      swap2\n      swap1\n      tag_27\n      jump\t// in\n    tag_68:\n      mload(0x40)\n      dup1\n      swap2\n      sub\n      swap1\n      log3\n        /* \"moricheCoin.sol\":2827:2831  true */\n      0x01\n        /* \"moricheCoin.sol\":2820:2831  return true */\n      swap1\n      pop\n        /* \"moricheCoin.sol\":2352:2839  function transferFrom(address owner, address buyer, uint256 numTokens) public override returns (bool) {\r... */\n      swap4\n      swap3\n      pop\n      pop\n      pop\n      jump\t// out\n        /* \"moricheCoin.sol\":876:920  uint256 public constant total = 180000000000 */\n    tag_34:\n        /* \"moricheCoin.sol\":908:920  180000000000 */\n      0x29e8d60800\n        /* \"moricheCoin.sol\":876:920  uint256 public constant total = 180000000000 */\n      dup2\n      jump\t// out\n        /* \"moricheCoin.sol\":834:869  uint8 public constant decimals = 18 */\n    tag_37:\n        /* \"moricheCoin.sol\":867:869  18 */\n      0x12\n        /* \"moricheCoin.sol\":834:869  uint8 public constant decimals = 18 */\n      dup2\n      jump\t// out\n        /* \"moricheCoin.sol\":1482:1606  function balanceOf(address tokenOwner) public override view returns (uint256) {\r... */\n    tag_43:\n        /* \"moricheCoin.sol\":1551:1558  uint256 */\n      0x00\n        /* \"moricheCoin.sol\":1578:1586  balances */\n      dup1\n        /* \"moricheCoin.sol\":1578:1598  balances[tokenOwner] */\n      0x00\n        /* \"moricheCoin.sol\":1587:1597  tokenOwner */\n      dup4\n        /* \"moricheCoin.sol\":1578:1598  balances[tokenOwner] */\n      0xffffffffffffffffffffffffffffffffffffffff\n      and\n      0xffffffffffffffffffffffffffffffffffffffff\n      and\n      dup2\n      mstore\n      0x20\n      add\n      swap1\n      dup2\n      mstore\n      0x20\n      add\n      0x00\n      keccak256\n      sload\n        /* \"moricheCoin.sol\":1571:1598  return balances[tokenOwner] */\n      swap1\n      pop\n        /* \"moricheCoin.sol\":1482:1606  function balanceOf(address tokenOwner) public override view returns (uint256) {\r... */\n      swap2\n      swap1\n      pop\n      jump\t// out\n        /* \"moricheCoin.sol\":788:827  string public constant symbol = \"MORIc\" */\n    tag_46:\n      mload(0x40)\n      dup1\n      0x40\n      add\n      0x40\n      mstore\n      dup1\n      0x05\n      dup2\n      mstore\n      0x20\n      add\n      0x4d4f524963000000000000000000000000000000000000000000000000000000\n      dup2\n      mstore\n      pop\n      dup2\n      jump\t// out\n        /* \"moricheCoin.sol\":1612:1972  function transfer(address receiver, uint256 numTokens) public override returns (bool) {\r... */\n    tag_50:\n        /* \"moricheCoin.sol\":1692:1696  bool */\n      0x00\n        /* \"moricheCoin.sol\":1730:1738  balances */\n      dup1\n        /* \"moricheCoin.sol\":1730:1750  balances[msg.sender] */\n      0x00\n        /* \"moricheCoin.sol\":1739:1749  msg.sender */\n      caller\n        /* \"moricheCoin.sol\":1730:1750  balances[msg.sender] */\n      0xffffffffffffffffffffffffffffffffffffffff\n      and\n      0xffffffffffffffffffffffffffffffffffffffff\n      and\n      dup2\n      mstore\n      0x20\n      add\n      swap1\n      dup2\n      mstore\n      0x20\n      add\n      0x00\n      keccak256\n      sload\n        /* \"moricheCoin.sol\":1717:1726  numTokens */\n      dup3\n        /* \"moricheCoin.sol\":1717:1750  numTokens <= balances[msg.sender] */\n      gt\n      iszero\n        /* \"moricheCoin.sol\":1709:1751  require(numTokens <= balances[msg.sender]) */\n      tag_71\n      jumpi\n      0x00\n      dup1\n      revert\n    tag_71:\n        /* \"moricheCoin.sol\":1785:1820  balances[msg.sender].sub(numTokens) */\n      tag_72\n        /* \"moricheCoin.sol\":1810:1819  numTokens */\n      dup3\n        /* \"moricheCoin.sol\":1785:1793  balances */\n      0x00\n        /* \"moricheCoin.sol\":1785:1805  balances[msg.sender] */\n      dup1\n        /* \"moricheCoin.sol\":1794:1804  msg.sender */\n      caller\n        /* \"moricheCoin.sol\":1785:1805  balances[msg.sender] */\n      0xffffffffffffffffffffffffffffffffffffffff\n      and\n      0xffffffffffffffffffffffffffffffffffffffff\n      and\n      dup2\n      mstore\n      0x20\n      add\n      swap1\n      dup2\n      mstore\n      0x20\n      add\n      0x00\n      keccak256\n      sload\n        /* \"moricheCoin.sol\":1785:1809  balances[msg.sender].sub */\n      tag_64\n      swap1\n        /* \"moricheCoin.sol\":1785:1820  balances[msg.sender].sub(numTokens) */\n      swap2\n      swap1\n      0xffffffff\n      and\n      jump\t// in\n    tag_72:\n        /* \"moricheCoin.sol\":1762:1770  balances */\n      0x00\n        /* \"moricheCoin.sol\":1762:1782  balances[msg.sender] */\n      dup1\n        /* \"moricheCoin.sol\":1771:1781  msg.sender */\n      caller\n        /* \"moricheCoin.sol\":1762:1782  balances[msg.sender] */\n      0xffffffffffffffffffffffffffffffffffffffff\n      and\n      0xffffffffffffffffffffffffffffffffffffffff\n      and\n      dup2\n      mstore\n      0x20\n      add\n      swap1\n      dup2\n      mstore\n      0x20\n      add\n      0x00\n      keccak256\n        /* \"moricheCoin.sol\":1762:1820  balances[msg.sender] = balances[msg.sender].sub(numTokens) */\n      dup2\n      swap1\n      sstore\n      pop\n        /* \"moricheCoin.sol\":1852:1885  balances[receiver].add(numTokens) */\n      tag_73\n        /* \"moricheCoin.sol\":1875:1884  numTokens */\n      dup3\n        /* \"moricheCoin.sol\":1852:1860  balances */\n      0x00\n        /* \"moricheCoin.sol\":1852:1870  balances[receiver] */\n      dup1\n        /* \"moricheCoin.sol\":1861:1869  receiver */\n      dup7\n        /* \"moricheCoin.sol\":1852:1870  balances[receiver] */\n      0xffffffffffffffffffffffffffffffffffffffff\n      and\n      0xffffffffffffffffffffffffffffffffffffffff\n      and\n      dup2\n      mstore\n      0x20\n      add\n      swap1\n      dup2\n      mstore\n      0x20\n      add\n      0x00\n      keccak256\n      sload\n        /* \"moricheCoin.sol\":1852:1874  balances[receiver].add */\n      tag_67\n      swap1\n        /* \"moricheCoin.sol\":1852:1885  balances[receiver].add(numTokens) */\n      swap2\n      swap1\n      0xffffffff\n      and\n      jump\t// in\n    tag_73:\n        /* \"moricheCoin.sol\":1831:1839  balances */\n      0x00\n        /* \"moricheCoin.sol\":1831:1849  balances[receiver] */\n      dup1\n        /* \"moricheCoin.sol\":1840:1848  receiver */\n      dup6\n        /* \"moricheCoin.sol\":1831:1849  balances[receiver] */\n      0xffffffffffffffffffffffffffffffffffffffff\n      and\n      0xffffffffffffffffffffffffffffffffffffffff\n      and\n      dup2\n      mstore\n      0x20\n      add\n      swap1\n      dup2\n      mstore\n      0x20\n      add\n      0x00\n      keccak256\n        /* \"moricheCoin.sol\":1831:1885  balances[receiver] = balances[receiver].add(numTokens) */\n      dup2\n      swap1\n      sstore\n      pop\n        /* \"moricheCoin.sol\":1922:1930  receiver */\n      dup3\n        /* \"moricheCoin.sol\":1901:1942  Transfer(msg.sender, receiver, numTokens) */\n      0xffffffffffffffffffffffffffffffffffffffff\n      and\n        /* \"moricheCoin.sol\":1910:1920  msg.sender */\n      caller\n        /* \"moricheCoin.sol\":1901:1942  Transfer(msg.sender, receiver, numTokens) */\n      0xffffffffffffffffffffffffffffffffffffffff\n      and\n      0xddf252ad1be2c89b69c2b068fc378daa952ba7f163c4a11628f55a4df523b3ef\n        /* \"moricheCoin.sol\":1932:1941  numTokens */\n      dup5\n        /* \"moricheCoin.sol\":1901:1942  Transfer(msg.sender, receiver, numTokens) */\n      mload(0x40)\n      tag_74\n      swap2\n      swap1\n      tag_27\n      jump\t// in\n    tag_74:\n      mload(0x40)\n      dup1\n      swap2\n      sub\n      swap1\n      log3\n        /* \"moricheCoin.sol\":1960:1964  true */\n      0x01\n        /* \"moricheCoin.sol\":1953:1964  return true */\n      swap1\n      pop\n        /* \"moricheCoin.sol\":1612:1972  function transfer(address receiver, uint256 numTokens) public override returns (bool) {\r... */\n      swap3\n      swap2\n      pop\n      pop\n      jump\t// out\n        /* \"moricheCoin.sol\":2208:2346  function allowance(address owner, address delegate) public override view returns (uint) {\r... */\n    tag_55:\n        /* \"moricheCoin.sol\":2290:2294  uint */\n      0x00\n        /* \"moricheCoin.sol\":2314:2321  allowed */\n      0x01\n        /* \"moricheCoin.sol\":2314:2328  allowed[owner] */\n      0x00\n        /* \"moricheCoin.sol\":2322:2327  owner */\n      dup5\n        /* \"moricheCoin.sol\":2314:2328  allowed[owner] */\n      0xffffffffffffffffffffffffffffffffffffffff\n      and\n      0xffffffffffffffffffffffffffffffffffffffff\n      and\n      dup2\n      mstore\n      0x20\n      add\n      swap1\n      dup2\n      mstore\n      0x20\n      add\n      0x00\n      keccak256\n        /* \"moricheCoin.sol\":2314:2338  allowed[owner][delegate] */\n      0x00\n        /* \"moricheCoin.sol\":2329:2337  delegate */\n      dup4\n        /* \"moricheCoin.sol\":2314:2338  allowed[owner][delegate] */\n      0xffffffffffffffffffffffffffffffffffffffff\n      and\n      0xffffffffffffffffffffffffffffffffffffffff\n      and\n      dup2\n      mstore\n      0x20\n      add\n      swap1\n      dup2\n      mstore\n      0x20\n      add\n      0x00\n      keccak256\n      sload\n        /* \"moricheCoin.sol\":2307:2338  return allowed[owner][delegate] */\n      swap1\n      pop\n        /* \"moricheCoin.sol\":2208:2346  function allowance(address owner, address delegate) public override view returns (uint) {\r... */\n      swap3\n      swap2\n      pop\n      pop\n      jump\t// out\n        /* \"moricheCoin.sol\":2868:2991  function sub(uint256 a, uint256 b) internal pure returns (uint256) {\r... */\n    tag_64:\n        /* \"moricheCoin.sol\":2926:2933  uint256 */\n      0x00\n        /* \"moricheCoin.sol\":2958:2959  a */\n      dup3\n        /* \"moricheCoin.sol\":2953:2954  b */\n      dup3\n        /* \"moricheCoin.sol\":2953:2959  b <= a */\n      gt\n      iszero\n        /* \"moricheCoin.sol\":2946:2960  assert(b <= a) */\n      tag_77\n      jumpi\n      mstore(0x00, 0x4e487b7100000000000000000000000000000000000000000000000000000000)\n      mstore(0x04, 0x01)\n      revert(0x00, 0x24)\n    tag_77:\n        /* \"moricheCoin.sol\":2982:2983  b */\n      dup2\n        /* \"moricheCoin.sol\":2978:2979  a */\n      dup4\n        /* \"moricheCoin.sol\":2978:2983  a - b */\n      tag_78\n      swap2\n      swap1\n      tag_79\n      jump\t// in\n    tag_78:\n        /* \"moricheCoin.sol\":2971:2983  return a - b */\n      swap1\n      pop\n        /* \"moricheCoin.sol\":2868:2991  function sub(uint256 a, uint256 b) internal pure returns (uint256) {\r... */\n      swap3\n      swap2\n      pop\n      pop\n      jump\t// out\n        /* \"moricheCoin.sol\":2997:3144  function add(uint256 a, uint256 b) internal pure returns (uint256) {\r... */\n    tag_67:\n        /* \"moricheCoin.sol\":3055:3062  uint256 */\n      0x00\n        /* \"moricheCoin.sol\":3075:3084  uint256 c */\n      dup1\n        /* \"moricheCoin.sol\":3091:3092  b */\n      dup3\n        /* \"moricheCoin.sol\":3087:3088  a */\n      dup5\n        /* \"moricheCoin.sol\":3087:3092  a + b */\n      tag_81\n      swap2\n      swap1\n      tag_82\n      jump\t// in\n    tag_81:\n        /* \"moricheCoin.sol\":3075:3092  uint256 c = a + b */\n      swap1\n      pop\n        /* \"moricheCoin.sol\":3115:3116  a */\n      dup4\n        /* \"moricheCoin.sol\":3110:3111  c */\n      dup2\n        /* \"moricheCoin.sol\":3110:3116  c >= a */\n      lt\n      iszero\n        /* \"moricheCoin.sol\":3103:3117  assert(c >= a) */\n      tag_83\n      jumpi\n      mstore(0x00, 0x4e487b7100000000000000000000000000000000000000000000000000000000)\n      mstore(0x04, 0x01)\n      revert(0x00, 0x24)\n    tag_83:\n        /* \"moricheCoin.sol\":3135:3136  c */\n      dup1\n        /* \"moricheCoin.sol\":3128:3136  return c */\n      swap2\n      pop\n      pop\n        /* \"moricheCoin.sol\":2997:3144  function add(uint256 a, uint256 b) internal pure returns (uint256) {\r... */\n      swap3\n      swap2\n      pop\n      pop\n      jump\t// out\n        /* \"#utility.yul\":7:146   */\n    tag_85:\n      0x00\n        /* \"#utility.yul\":91:97   */\n      dup2\n        /* \"#utility.yul\":78:98   */\n      calldataload\n        /* \"#utility.yul\":69:98   */\n      swap1\n      pop\n        /* \"#utility.yul\":107:140   */\n      tag_87\n        /* \"#utility.yul\":134:139   */\n      dup2\n        /* \"#utility.yul\":107:140   */\n      tag_88\n      jump\t// in\n    tag_87:\n        /* \"#utility.yul\":59:146   */\n      swap3\n      swap2\n      pop\n      pop\n      jump\t// out\n        /* \"#utility.yul\":152:291   */\n    tag_89:\n      0x00\n        /* \"#utility.yul\":236:242   */\n      dup2\n        /* \"#utility.yul\":223:243   */\n      calldataload\n        /* \"#utility.yul\":214:243   */\n      swap1\n      pop\n        /* \"#utility.yul\":252:285   */\n      tag_91\n        /* \"#utility.yul\":279:284   */\n      dup2\n        /* \"#utility.yul\":252:285   */\n      tag_92\n      jump\t// in\n    tag_91:\n        /* \"#utility.yul\":204:291   */\n      swap3\n      swap2\n      pop\n      pop\n      jump\t// out\n        /* \"#utility.yul\":297:559   */\n    tag_42:\n      0x00\n        /* \"#utility.yul\":405:407   */\n      0x20\n        /* \"#utility.yul\":393:402   */\n      dup3\n        /* \"#utility.yul\":384:391   */\n      dup5\n        /* \"#utility.yul\":380:403   */\n      sub\n        /* \"#utility.yul\":376:408   */\n      slt\n        /* \"#utility.yul\":373:375   */\n      iszero\n      tag_94\n      jumpi\n        /* \"#utility.yul\":421:422   */\n      0x00\n        /* \"#utility.yul\":418:419   */\n      dup1\n        /* \"#utility.yul\":411:423   */\n      revert\n        /* \"#utility.yul\":373:375   */\n    tag_94:\n        /* \"#utility.yul\":464:465   */\n      0x00\n        /* \"#utility.yul\":489:542   */\n      tag_95\n        /* \"#utility.yul\":534:541   */\n      dup5\n        /* \"#utility.yul\":525:531   */\n      dup3\n        /* \"#utility.yul\":514:523   */\n      dup6\n        /* \"#utility.yul\":510:532   */\n      add\n        /* \"#utility.yul\":489:542   */\n      tag_85\n      jump\t// in\n    tag_95:\n        /* \"#utility.yul\":479:542   */\n      swap2\n      pop\n        /* \"#utility.yul\":435:552   */\n      pop\n        /* \"#utility.yul\":363:559   */\n      swap3\n      swap2\n      pop\n      pop\n      jump\t// out\n        /* \"#utility.yul\":565:972   */\n    tag_54:\n      0x00\n      dup1\n        /* \"#utility.yul\":690:692   */\n      0x40\n        /* \"#utility.yul\":678:687   */\n      dup4\n        /* \"#utility.yul\":669:676   */\n      dup6\n        /* \"#utility.yul\":665:688   */\n      sub\n        /* \"#utility.yul\":661:693   */\n      slt\n        /* \"#utility.yul\":658:660   */\n      iszero\n      tag_97\n      jumpi\n        /* \"#utility.yul\":706:707   */\n      0x00\n        /* \"#utility.yul\":703:704   */\n      dup1\n        /* \"#utility.yul\":696:708   */\n      revert\n        /* \"#utility.yul\":658:660   */\n    tag_97:\n        /* \"#utility.yul\":749:750   */\n      0x00\n        /* \"#utility.yul\":774:827   */\n      tag_98\n        /* \"#utility.yul\":819:826   */\n      dup6\n        /* \"#utility.yul\":810:816   */\n      dup3\n        /* \"#utility.yul\":799:808   */\n      dup7\n        /* \"#utility.yul\":795:817   */\n      add\n        /* \"#utility.yul\":774:827   */\n      tag_85\n      jump\t// in\n    tag_98:\n        /* \"#utility.yul\":764:827   */\n      swap3\n      pop\n        /* \"#utility.yul\":720:837   */\n      pop\n        /* \"#utility.yul\":876:878   */\n      0x20\n        /* \"#utility.yul\":902:955   */\n      tag_99\n        /* \"#utility.yul\":947:954   */\n      dup6\n        /* \"#utility.yul\":938:944   */\n      dup3\n        /* \"#utility.yul\":927:936   */\n      dup7\n        /* \"#utility.yul\":923:945   */\n      add\n        /* \"#utility.yul\":902:955   */\n      tag_85\n      jump\t// in\n    tag_99:\n        /* \"#utility.yul\":892:955   */\n      swap2\n      pop\n        /* \"#utility.yul\":847:965   */\n      pop\n        /* \"#utility.yul\":648:972   */\n      swap3\n      pop\n      swap3\n      swap1\n      pop\n      jump\t// out\n        /* \"#utility.yul\":978:1530   */\n    tag_30:\n      0x00\n      dup1\n      0x00\n        /* \"#utility.yul\":1120:1122   */\n      0x60\n        /* \"#utility.yul\":1108:1117   */\n      dup5\n        /* \"#utility.yul\":1099:1106   */\n      dup7\n        /* \"#utility.yul\":1095:1118   */\n      sub\n        /* \"#utility.yul\":1091:1123   */\n      slt\n        /* \"#utility.yul\":1088:1090   */\n      iszero\n      tag_101\n      jumpi\n        /* \"#utility.yul\":1136:1137   */\n      0x00\n        /* \"#utility.yul\":1133:1134   */\n      dup1\n        /* \"#utility.yul\":1126:1138   */\n      revert\n        /* \"#utility.yul\":1088:1090   */\n    tag_101:\n        /* \"#utility.yul\":1179:1180   */\n      0x00\n        /* \"#utility.yul\":1204:1257   */\n      tag_102\n        /* \"#utility.yul\":1249:1256   */\n      dup7\n        /* \"#utility.yul\":1240:1246   */\n      dup3\n        /* \"#utility.yul\":1229:1238   */\n      dup8\n        /* \"#utility.yul\":1225:1247   */\n      add\n        /* \"#utility.yul\":1204:1257   */\n      tag_85\n      jump\t// in\n    tag_102:\n        /* \"#utility.yul\":1194:1257   */\n      swap4\n      pop\n        /* \"#utility.yul\":1150:1267   */\n      pop\n        /* \"#utility.yul\":1306:1308   */\n      0x20\n        /* \"#utility.yul\":1332:1385   */\n      tag_103\n        /* \"#utility.yul\":1377:1384   */\n      dup7\n        /* \"#utility.yul\":1368:1374   */\n      dup3\n        /* \"#utility.yul\":1357:1366   */\n      dup8\n        /* \"#utility.yul\":1353:1375   */\n      add\n        /* \"#utility.yul\":1332:1385   */\n      tag_85\n      jump\t// in\n    tag_103:\n        /* \"#utility.yul\":1322:1385   */\n      swap3\n      pop\n        /* \"#utility.yul\":1277:1395   */\n      pop\n        /* \"#utility.yul\":1434:1436   */\n      0x40\n        /* \"#utility.yul\":1460:1513   */\n      tag_104\n        /* \"#utility.yul\":1505:1512   */\n      dup7\n        /* \"#utility.yul\":1496:1502   */\n      dup3\n        /* \"#utility.yul\":1485:1494   */\n      dup8\n        /* \"#utility.yul\":1481:1503   */\n      add\n        /* \"#utility.yul\":1460:1513   */\n      tag_89\n      jump\t// in\n    tag_104:\n        /* \"#utility.yul\":1450:1513   */\n      swap2\n      pop\n        /* \"#utility.yul\":1405:1523   */\n      pop\n        /* \"#utility.yul\":1078:1530   */\n      swap3\n      pop\n      swap3\n      pop\n      swap3\n      jump\t// out\n        /* \"#utility.yul\":1536:1943   */\n    tag_20:\n      0x00\n      dup1\n        /* \"#utility.yul\":1661:1663   */\n      0x40\n        /* \"#utility.yul\":1649:1658   */\n      dup4\n        /* \"#utility.yul\":1640:1647   */\n      dup6\n        /* \"#utility.yul\":1636:1659   */\n      sub\n        /* \"#utility.yul\":1632:1664   */\n      slt\n        /* \"#utility.yul\":1629:1631   */\n      iszero\n      tag_106\n      jumpi\n        /* \"#utility.yul\":1677:1678   */\n      0x00\n        /* \"#utility.yul\":1674:1675   */\n      dup1\n        /* \"#utility.yul\":1667:1679   */\n      revert\n        /* \"#utility.yul\":1629:1631   */\n    tag_106:\n        /* \"#utility.yul\":1720:1721   */\n      0x00\n        /* \"#utility.yul\":1745:1798   */\n      tag_107\n        /* \"#utility.yul\":1790:1797   */\n      dup6\n        /* \"#utility.yul\":1781:1787   */\n      dup3\n        /* \"#utility.yul\":1770:1779   */\n      dup7\n        /* \"#utility.yul\":1766:1788   */\n      add\n        /* \"#utility.yul\":1745:1798   */\n      tag_85\n      jump\t// in\n    tag_107:\n        /* \"#utility.yul\":1735:1798   */\n      swap3\n      pop\n        /* \"#utility.yul\":1691:1808   */\n      pop\n        /* \"#utility.yul\":1847:1849   */\n      0x20\n        /* \"#utility.yul\":1873:1926   */\n      tag_108\n        /* \"#utility.yul\":1918:1925   */\n      dup6\n        /* \"#utility.yul\":1909:1915   */\n      dup3\n        /* \"#utility.yul\":1898:1907   */\n      dup7\n        /* \"#utility.yul\":1894:1916   */\n      add\n        /* \"#utility.yul\":1873:1926   */\n      tag_89\n      jump\t// in\n    tag_108:\n        /* \"#utility.yul\":1863:1926   */\n      swap2\n      pop\n        /* \"#utility.yul\":1818:1936   */\n      pop\n        /* \"#utility.yul\":1619:1943   */\n      swap3\n      pop\n      swap3\n      swap1\n      pop\n      jump\t// out\n        /* \"#utility.yul\":1949:2058   */\n    tag_109:\n        /* \"#utility.yul\":2030:2051   */\n      tag_111\n        /* \"#utility.yul\":2045:2050   */\n      dup2\n        /* \"#utility.yul\":2030:2051   */\n      tag_112\n      jump\t// in\n    tag_111:\n        /* \"#utility.yul\":2025:2028   */\n      dup3\n        /* \"#utility.yul\":2018:2052   */\n      mstore\n        /* \"#utility.yul\":2008:2058   */\n      pop\n      pop\n      jump\t// out\n        /* \"#utility.yul\":2064:2428   */\n    tag_113:\n      0x00\n        /* \"#utility.yul\":2180:2219   */\n      tag_115\n        /* \"#utility.yul\":2213:2218   */\n      dup3\n        /* \"#utility.yul\":2180:2219   */\n      tag_116\n      jump\t// in\n    tag_115:\n        /* \"#utility.yul\":2235:2306   */\n      tag_117\n        /* \"#utility.yul\":2299:2305   */\n      dup2\n        /* \"#utility.yul\":2294:2297   */\n      dup6\n        /* \"#utility.yul\":2235:2306   */\n      tag_118\n      jump\t// in\n    tag_117:\n        /* \"#utility.yul\":2228:2306   */\n      swap4\n      pop\n        /* \"#utility.yul\":2315:2367   */\n      tag_119\n        /* \"#utility.yul\":2360:2366   */\n      dup2\n        /* \"#utility.yul\":2355:2358   */\n      dup6\n        /* \"#utility.yul\":2348:2352   */\n      0x20\n        /* \"#utility.yul\":2341:2346   */\n      dup7\n        /* \"#utility.yul\":2337:2353   */\n      add\n        /* \"#utility.yul\":2315:2367   */\n      tag_120\n      jump\t// in\n    tag_119:\n        /* \"#utility.yul\":2392:2421   */\n      tag_121\n        /* \"#utility.yul\":2414:2420   */\n      dup2\n        /* \"#utility.yul\":2392:2421   */\n      tag_122\n      jump\t// in\n    tag_121:\n        /* \"#utility.yul\":2387:2390   */\n      dup5\n        /* \"#utility.yul\":2383:2422   */\n      add\n        /* \"#utility.yul\":2376:2422   */\n      swap2\n      pop\n        /* \"#utility.yul\":2156:2428   */\n      pop\n      swap3\n      swap2\n      pop\n      pop\n      jump\t// out\n        /* \"#utility.yul\":2434:2552   */\n    tag_123:\n        /* \"#utility.yul\":2521:2545   */\n      tag_125\n        /* \"#utility.yul\":2539:2544   */\n      dup2\n        /* \"#utility.yul\":2521:2545   */\n      tag_126\n      jump\t// in\n    tag_125:\n        /* \"#utility.yul\":2516:2519   */\n      dup3\n        /* \"#utility.yul\":2509:2546   */\n      mstore\n        /* \"#utility.yul\":2499:2552   */\n      pop\n      pop\n      jump\t// out\n        /* \"#utility.yul\":2558:2670   */\n    tag_127:\n        /* \"#utility.yul\":2641:2663   */\n      tag_129\n        /* \"#utility.yul\":2657:2662   */\n      dup2\n        /* \"#utility.yul\":2641:2663   */\n      tag_130\n      jump\t// in\n    tag_129:\n        /* \"#utility.yul\":2636:2639   */\n      dup3\n        /* \"#utility.yul\":2629:2664   */\n      mstore\n        /* \"#utility.yul\":2619:2670   */\n      pop\n      pop\n      jump\t// out\n        /* \"#utility.yul\":2676:2886   */\n    tag_23:\n      0x00\n        /* \"#utility.yul\":2801:2803   */\n      0x20\n        /* \"#utility.yul\":2790:2799   */\n      dup3\n        /* \"#utility.yul\":2786:2804   */\n      add\n        /* \"#utility.yul\":2778:2804   */\n      swap1\n      pop\n        /* \"#utility.yul\":2814:2879   */\n      tag_132\n        /* \"#utility.yul\":2876:2877   */\n      0x00\n        /* \"#utility.yul\":2865:2874   */\n      dup4\n        /* \"#utility.yul\":2861:2878   */\n      add\n        /* \"#utility.yul\":2852:2858   */\n      dup5\n        /* \"#utility.yul\":2814:2879   */\n      tag_109\n      jump\t// in\n    tag_132:\n        /* \"#utility.yul\":2768:2886   */\n      swap3\n      swap2\n      pop\n      pop\n      jump\t// out\n        /* \"#utility.yul\":2892:3205   */\n    tag_17:\n      0x00\n        /* \"#utility.yul\":3043:3045   */\n      0x20\n        /* \"#utility.yul\":3032:3041   */\n      dup3\n        /* \"#utility.yul\":3028:3046   */\n      add\n        /* \"#utility.yul\":3020:3046   */\n      swap1\n      pop\n        /* \"#utility.yul\":3092:3101   */\n      dup2\n        /* \"#utility.yul\":3086:3090   */\n      dup2\n        /* \"#utility.yul\":3082:3102   */\n      sub\n        /* \"#utility.yul\":3078:3079   */\n      0x00\n        /* \"#utility.yul\":3067:3076   */\n      dup4\n        /* \"#utility.yul\":3063:3080   */\n      add\n        /* \"#utility.yul\":3056:3103   */\n      mstore\n        /* \"#utility.yul\":3120:3198   */\n      tag_134\n        /* \"#utility.yul\":3193:3197   */\n      dup2\n        /* \"#utility.yul\":3184:3190   */\n      dup5\n        /* \"#utility.yul\":3120:3198   */\n      tag_113\n      jump\t// in\n    tag_134:\n        /* \"#utility.yul\":3112:3198   */\n      swap1\n      pop\n        /* \"#utility.yul\":3010:3205   */\n      swap3\n      swap2\n      pop\n      pop\n      jump\t// out\n        /* \"#utility.yul\":3211:3433   */\n    tag_27:\n      0x00\n        /* \"#utility.yul\":3342:3344   */\n      0x20\n        /* \"#utility.yul\":3331:3340   */\n      dup3\n        /* \"#utility.yul\":3327:3345   */\n      add\n        /* \"#utility.yul\":3319:3345   */\n      swap1\n      pop\n        /* \"#utility.yul\":3355:3426   */\n      tag_136\n        /* \"#utility.yul\":3423:3424   */\n      0x00\n        /* \"#utility.yul\":3412:3421   */\n      dup4\n        /* \"#utility.yul\":3408:3425   */\n      add\n        /* \"#utility.yul\":3399:3405   */\n      dup5\n        /* \"#utility.yul\":3355:3426   */\n      tag_123\n      jump\t// in\n    tag_136:\n        /* \"#utility.yul\":3309:3433   */\n      swap3\n      swap2\n      pop\n      pop\n      jump\t// out\n        /* \"#utility.yul\":3439:3653   */\n    tag_39:\n      0x00\n        /* \"#utility.yul\":3566:3568   */\n      0x20\n        /* \"#utility.yul\":3555:3564   */\n      dup3\n        /* \"#utility.yul\":3551:3569   */\n      add\n        /* \"#utility.yul\":3543:3569   */\n      swap1\n      pop\n        /* \"#utility.yul\":3579:3646   */\n      tag_138\n        /* \"#utility.yul\":3643:3644   */\n      0x00\n        /* \"#utility.yul\":3632:3641   */\n      dup4\n        /* \"#utility.yul\":3628:3645   */\n      add\n        /* \"#utility.yul\":3619:3625   */\n      dup5\n        /* \"#utility.yul\":3579:3646   */\n      tag_127\n      jump\t// in\n    tag_138:\n        /* \"#utility.yul\":3533:3653   */\n      swap3\n      swap2\n      pop\n      pop\n      jump\t// out\n        /* \"#utility.yul\":3659:3758   */\n    tag_116:\n      0x00\n        /* \"#utility.yul\":3745:3750   */\n      dup2\n        /* \"#utility.yul\":3739:3751   */\n      mload\n        /* \"#utility.yul\":3729:3751   */\n      swap1\n      pop\n        /* \"#utility.yul\":3718:3758   */\n      swap2\n      swap1\n      pop\n      jump\t// out\n        /* \"#utility.yul\":3764:3933   */\n    tag_118:\n      0x00\n        /* \"#utility.yul\":3882:3888   */\n      dup3\n        /* \"#utility.yul\":3877:3880   */\n      dup3\n        /* \"#utility.yul\":3870:3889   */\n      mstore\n        /* \"#utility.yul\":3922:3926   */\n      0x20\n        /* \"#utility.yul\":3917:3920   */\n      dup3\n        /* \"#utility.yul\":3913:3927   */\n      add\n        /* \"#utility.yul\":3898:3927   */\n      swap1\n      pop\n        /* \"#utility.yul\":3860:3933   */\n      swap3\n      swap2\n      pop\n      pop\n      jump\t// out\n        /* \"#utility.yul\":3939:4244   */\n    tag_82:\n      0x00\n        /* \"#utility.yul\":3998:4018   */\n      tag_142\n        /* \"#utility.yul\":4016:4017   */\n      dup3\n        /* \"#utility.yul\":3998:4018   */\n      tag_126\n      jump\t// in\n    tag_142:\n        /* \"#utility.yul\":3993:4018   */\n      swap2\n      pop\n        /* \"#utility.yul\":4032:4052   */\n      tag_143\n        /* \"#utility.yul\":4050:4051   */\n      dup4\n        /* \"#utility.yul\":4032:4052   */\n      tag_126\n      jump\t// in\n    tag_143:\n        /* \"#utility.yul\":4027:4052   */\n      swap3\n      pop\n        /* \"#utility.yul\":4186:4187   */\n      dup3\n        /* \"#utility.yul\":4118:4184   */\n      0xffffffffffffffffffffffffffffffffffffffffffffffffffffffffffffffff\n        /* \"#utility.yul\":4114:4188   */\n      sub\n        /* \"#utility.yul\":4111:4112   */\n      dup3\n        /* \"#utility.yul\":4108:4189   */\n      gt\n        /* \"#utility.yul\":4105:4107   */\n      iszero\n      tag_144\n      jumpi\n        /* \"#utility.yul\":4192:4210   */\n      tag_145\n      tag_146\n      jump\t// in\n    tag_145:\n        /* \"#utility.yul\":4105:4107   */\n    tag_144:\n        /* \"#utility.yul\":4236:4237   */\n      dup3\n        /* \"#utility.yul\":4233:4234   */\n      dup3\n        /* \"#utility.yul\":4229:4238   */\n      add\n        /* \"#utility.yul\":4222:4238   */\n      swap1\n      pop\n        /* \"#utility.yul\":3983:4244   */\n      swap3\n      swap2\n      pop\n      pop\n      jump\t// out\n        /* \"#utility.yul\":4250:4441   */\n    tag_79:\n      0x00\n        /* \"#utility.yul\":4310:4330   */\n      tag_148\n        /* \"#utility.yul\":4328:4329   */\n      dup3\n        /* \"#utility.yul\":4310:4330   */\n      tag_126\n      jump\t// in\n    tag_148:\n        /* \"#utility.yul\":4305:4330   */\n      swap2\n      pop\n        /* \"#utility.yul\":4344:4364   */\n      tag_149\n        /* \"#utility.yul\":4362:4363   */\n      dup4\n        /* \"#utility.yul\":4344:4364   */\n      tag_126\n      jump\t// in\n    tag_149:\n        /* \"#utility.yul\":4339:4364   */\n      swap3\n      pop\n        /* \"#utility.yul\":4383:4384   */\n      dup3\n        /* \"#utility.yul\":4380:4381   */\n      dup3\n        /* \"#utility.yul\":4377:4385   */\n      lt\n        /* \"#utility.yul\":4374:4376   */\n      iszero\n      tag_150\n      jumpi\n        /* \"#utility.yul\":4388:4406   */\n      tag_151\n      tag_146\n      jump\t// in\n    tag_151:\n        /* \"#utility.yul\":4374:4376   */\n    tag_150:\n        /* \"#utility.yul\":4433:4434   */\n      dup3\n        /* \"#utility.yul\":4430:4431   */\n      dup3\n        /* \"#utility.yul\":4426:4435   */\n      sub\n        /* \"#utility.yul\":4418:4435   */\n      swap1\n      pop\n        /* \"#utility.yul\":4295:4441   */\n      swap3\n      swap2\n      pop\n      pop\n      jump\t// out\n        /* \"#utility.yul\":4447:4543   */\n    tag_152:\n      0x00\n        /* \"#utility.yul\":4513:4537   */\n      tag_154\n        /* \"#utility.yul\":4531:4536   */\n      dup3\n        /* \"#utility.yul\":4513:4537   */\n      tag_155\n      jump\t// in\n    tag_154:\n        /* \"#utility.yul\":4502:4537   */\n      swap1\n      pop\n        /* \"#utility.yul\":4492:4543   */\n      swap2\n      swap1\n      pop\n      jump\t// out\n        /* \"#utility.yul\":4549:4639   */\n    tag_112:\n      0x00\n        /* \"#utility.yul\":4626:4631   */\n      dup2\n        /* \"#utility.yul\":4619:4632   */\n      iszero\n        /* \"#utility.yul\":4612:4633   */\n      iszero\n        /* \"#utility.yul\":4601:4633   */\n      swap1\n      pop\n        /* \"#utility.yul\":4591:4639   */\n      swap2\n      swap1\n      pop\n      jump\t// out\n        /* \"#utility.yul\":4645:4771   */\n    tag_155:\n      0x00\n        /* \"#utility.yul\":4722:4764   */\n      0xffffffffffffffffffffffffffffffffffffffff\n        /* \"#utility.yul\":4715:4720   */\n      dup3\n        /* \"#utility.yul\":4711:4765   */\n      and\n        /* \"#utility.yul\":4700:4765   */\n      swap1\n      pop\n        /* \"#utility.yul\":4690:4771   */\n      swap2\n      swap1\n      pop\n      jump\t// out\n        /* \"#utility.yul\":4777:4854   */\n    tag_126:\n      0x00\n        /* \"#utility.yul\":4843:4848   */\n      dup2\n        /* \"#utility.yul\":4832:4848   */\n      swap1\n      pop\n        /* \"#utility.yul\":4822:4854   */\n      swap2\n      swap1\n      pop\n      jump\t// out\n        /* \"#utility.yul\":4860:4946   */\n    tag_130:\n      0x00\n        /* \"#utility.yul\":4935:4939   */\n      0xff\n        /* \"#utility.yul\":4928:4933   */\n      dup3\n        /* \"#utility.yul\":4924:4940   */\n      and\n        /* \"#utility.yul\":4913:4940   */\n      swap1\n      pop\n        /* \"#utility.yul\":4903:4946   */\n      swap2\n      swap1\n      pop\n      jump\t// out\n        /* \"#utility.yul\":4952:5259   */\n    tag_120:\n        /* \"#utility.yul\":5020:5021   */\n      0x00\n        /* \"#utility.yul\":5030:5143   */\n    tag_161:\n        /* \"#utility.yul\":5044:5050   */\n      dup4\n        /* \"#utility.yul\":5041:5042   */\n      dup2\n        /* \"#utility.yul\":5038:5051   */\n      lt\n        /* \"#utility.yul\":5030:5143   */\n      iszero\n      tag_163\n      jumpi\n        /* \"#utility.yul\":5129:5130   */\n      dup1\n        /* \"#utility.yul\":5124:5127   */\n      dup3\n        /* \"#utility.yul\":5120:5131   */\n      add\n        /* \"#utility.yul\":5114:5132   */\n      mload\n        /* \"#utility.yul\":5110:5111   */\n      dup2\n        /* \"#utility.yul\":5105:5108   */\n      dup5\n        /* \"#utility.yul\":5101:5112   */\n      add\n        /* \"#utility.yul\":5094:5133   */\n      mstore\n        /* \"#utility.yul\":5066:5068   */\n      0x20\n        /* \"#utility.yul\":5063:5064   */\n      dup2\n        /* \"#utility.yul\":5059:5069   */\n      add\n        /* \"#utility.yul\":5054:5069   */\n      swap1\n      pop\n        /* \"#utility.yul\":5030:5143   */\n      jump(tag_161)\n    tag_163:\n        /* \"#utility.yul\":5161:5167   */\n      dup4\n        /* \"#utility.yul\":5158:5159   */\n      dup2\n        /* \"#utility.yul\":5155:5168   */\n      gt\n        /* \"#utility.yul\":5152:5154   */\n      iszero\n      tag_164\n      jumpi\n        /* \"#utility.yul\":5241:5242   */\n      0x00\n        /* \"#utility.yul\":5232:5238   */\n      dup5\n        /* \"#utility.yul\":5227:5230   */\n      dup5\n        /* \"#utility.yul\":5223:5239   */\n      add\n        /* \"#utility.yul\":5216:5243   */\n      mstore\n        /* \"#utility.yul\":5152:5154   */\n    tag_164:\n        /* \"#utility.yul\":5001:5259   */\n      pop\n      pop\n      pop\n      pop\n      jump\t// out\n        /* \"#utility.yul\":5265:5445   */\n    tag_146:\n        /* \"#utility.yul\":5313:5390   */\n      0x4e487b7100000000000000000000000000000000000000000000000000000000\n        /* \"#utility.yul\":5310:5311   */\n      0x00\n        /* \"#utility.yul\":5303:5391   */\n      mstore\n        /* \"#utility.yul\":5410:5414   */\n      0x11\n        /* \"#utility.yul\":5407:5408   */\n      0x04\n        /* \"#utility.yul\":5400:5415   */\n      mstore\n        /* \"#utility.yul\":5434:5438   */\n      0x24\n        /* \"#utility.yul\":5431:5432   */\n      0x00\n        /* \"#utility.yul\":5424:5439   */\n      revert\n        /* \"#utility.yul\":5451:5553   */\n    tag_122:\n      0x00\n        /* \"#utility.yul\":5543:5545   */\n      0x1f\n        /* \"#utility.yul\":5539:5546   */\n      not\n        /* \"#utility.yul\":5534:5536   */\n      0x1f\n        /* \"#utility.yul\":5527:5532   */\n      dup4\n        /* \"#utility.yul\":5523:5537   */\n      add\n        /* \"#utility.yul\":5519:5547   */\n      and\n        /* \"#utility.yul\":5509:5547   */\n      swap1\n      pop\n        /* \"#utility.yul\":5499:5553   */\n      swap2\n      swap1\n      pop\n      jump\t// out\n        /* \"#utility.yul\":5559:5681   */\n    tag_88:\n        /* \"#utility.yul\":5632:5656   */\n      tag_168\n        /* \"#utility.yul\":5650:5655   */\n      dup2\n        /* \"#utility.yul\":5632:5656   */\n      tag_152\n      jump\t// in\n    tag_168:\n        /* \"#utility.yul\":5625:5630   */\n      dup2\n        /* \"#utility.yul\":5622:5657   */\n      eq\n        /* \"#utility.yul\":5612:5614   */\n      tag_169\n      jumpi\n        /* \"#utility.yul\":5671:5672   */\n      0x00\n        /* \"#utility.yul\":5668:5669   */\n      dup1\n        /* \"#utility.yul\":5661:5673   */\n      revert\n        /* \"#utility.yul\":5612:5614   */\n    tag_169:\n        /* \"#utility.yul\":5602:5681   */\n      pop\n      jump\t// out\n        /* \"#utility.yul\":5687:5809   */\n    tag_92:\n        /* \"#utility.yul\":5760:5784   */\n      tag_171\n        /* \"#utility.yul\":5778:5783   */\n      dup2\n        /* \"#utility.yul\":5760:5784   */\n      tag_126\n      jump\t// in\n    tag_171:\n        /* \"#utility.yul\":5753:5758   */\n      dup2\n        /* \"#utility.yul\":5750:5785   */\n      eq\n        /* \"#utility.yul\":5740:5742   */\n      tag_172\n      jumpi\n        /* \"#utility.yul\":5799:5800   */\n      0x00\n        /* \"#utility.yul\":5796:5797   */\n      dup1\n        /* \"#utility.yul\":5789:5801   */\n      revert\n        /* \"#utility.yul\":5740:5742   */\n    tag_172:\n        /* \"#utility.yul\":5730:5809   */\n      pop\n      jump\t// out\n\n    auxdata: 0xa26469706673582212206e8549bcec8de49fefa765403af82bf83f5f3587e87fdaeafef4f52ec0f8359f64736f6c63430008000033\n}\n","bytecode":{"linkReferences":{},"object":"608060405234801561001057600080fd5b506429e8d608006002819055506002546000803373ffffffffffffffffffffffffffffffffffffffff1673ffffffffffffffffffffffffffffffffffffffff16815260200190815260200160002081905550610e35806100716000396000f3fe608060405234801561001057600080fd5b506004361061009e5760003560e01c8063313ce56711610066578063313ce5671461015d57806370a082311461017b57806395d89b41146101ab578063a9059cbb146101c9578063dd62ed3e146101f95761009e565b806306fdde03146100a3578063095ea7b3146100c157806318160ddd146100f157806323b872dd1461010f5780632ddbd13a1461013f575b600080fd5b6100ab610229565b6040516100b89190610c0b565b60405180910390f35b6100db60048036038101906100d69190610b4e565b610262565b6040516100e89190610bf0565b60405180910390f35b6100f9610354565b6040516101069190610c2d565b60405180910390f35b61012960048036038101906101249190610aff565b61035e565b6040516101369190610bf0565b60405180910390f35b6101476106d9565b6040516101549190610c2d565b60405180910390f35b6101656106e2565b6040516101729190610c48565b60405180910390f35b61019560048036038101906101909190610a9a565b6106e7565b6040516101a29190610c2d565b60405180910390f35b6101b361072f565b6040516101c09190610c0b565b60405180910390f35b6101e360048036038101906101de9190610b4e565b610768565b6040516101f09190610bf0565b60405180910390f35b610213600480360381019061020e9190610ac3565b61094a565b6040516102209190610c2d565b60405180910390f35b6040518060400160405280600c81526020017f4d4f524943484520434f494e000000000000000000000000000000000000000081525081565b600081600160003373ffffffffffffffffffffffffffffffffffffffff1673ffffffffffffffffffffffffffffffffffffffff16815260200190815260200160002060008573ffffffffffffffffffffffffffffffffffffffff1673ffffffffffffffffffffffffffffffffffffffff168152602001908152602001600020819055508273ffffffffffffffffffffffffffffffffffffffff163373ffffffffffffffffffffffffffffffffffffffff167f8c5be1e5ebec7d5bd14f71427d1e84f3dd0314c0f7b2291e5b200ac8c7c3b925846040516103429190610c2d565b60405180910390a36001905092915050565b6000600254905090565b60008060008573ffffffffffffffffffffffffffffffffffffffff1673ffffffffffffffffffffffffffffffffffffffff168152602001908152602001600020548211156103ab57600080fd5b600160008573ffffffffffffffffffffffffffffffffffffffff1673ffffffffffffffffffffffffffffffffffffffff16815260200190815260200160002060003373ffffffffffffffffffffffffffffffffffffffff1673ffffffffffffffffffffffffffffffffffffffff1681526020019081526020016000205482111561043457600080fd5b610485826000808773ffffffffffffffffffffffffffffffffffffffff1673ffffffffffffffffffffffffffffffffffffffff168152602001908152602001600020546109d190919063ffffffff16565b6000808673ffffffffffffffffffffffffffffffffffffffff1673ffffffffffffffffffffffffffffffffffffffff1681526020019081526020016000208190555061055682600160008773ffffffffffffffffffffffffffffffffffffffff1673ffffffffffffffffffffffffffffffffffffffff16815260200190815260200160002060003373ffffffffffffffffffffffffffffffffffffffff1673ffffffffffffffffffffffffffffffffffffffff168152602001908152602001600020546109d190919063ffffffff16565b600160008673ffffffffffffffffffffffffffffffffffffffff1673ffffffffffffffffffffffffffffffffffffffff16815260200190815260200160002060003373ffffffffffffffffffffffffffffffffffffffff1673ffffffffffffffffffffffffffffffffffffffff16815260200190815260200160002081905550610627826000808673ffffffffffffffffffffffffffffffffffffffff1673ffffffffffffffffffffffffffffffffffffffff16815260200190815260200160002054610a1e90919063ffffffff16565b6000808573ffffffffffffffffffffffffffffffffffffffff1673ffffffffffffffffffffffffffffffffffffffff168152602001908152602001600020819055508273ffffffffffffffffffffffffffffffffffffffff168473ffffffffffffffffffffffffffffffffffffffff167fddf252ad1be2c89b69c2b068fc378daa952ba7f163c4a11628f55a4df523b3ef846040516106c69190610c2d565b60405180910390a3600190509392505050565b6429e8d6080081565b601281565b60008060008373ffffffffffffffffffffffffffffffffffffffff1673ffffffffffffffffffffffffffffffffffffffff168152602001908152602001600020549050919050565b6040518060400160405280600581526020017f4d4f52496300000000000000000000000000000000000000000000000000000081525081565b60008060003373ffffffffffffffffffffffffffffffffffffffff1673ffffffffffffffffffffffffffffffffffffffff168152602001908152602001600020548211156107b557600080fd5b610806826000803373ffffffffffffffffffffffffffffffffffffffff1673ffffffffffffffffffffffffffffffffffffffff168152602001908152602001600020546109d190919063ffffffff16565b6000803373ffffffffffffffffffffffffffffffffffffffff1673ffffffffffffffffffffffffffffffffffffffff16815260200190815260200160002081905550610899826000808673ffffffffffffffffffffffffffffffffffffffff1673ffffffffffffffffffffffffffffffffffffffff16815260200190815260200160002054610a1e90919063ffffffff16565b6000808573ffffffffffffffffffffffffffffffffffffffff1673ffffffffffffffffffffffffffffffffffffffff168152602001908152602001600020819055508273ffffffffffffffffffffffffffffffffffffffff163373ffffffffffffffffffffffffffffffffffffffff167fddf252ad1be2c89b69c2b068fc378daa952ba7f163c4a11628f55a4df523b3ef846040516109389190610c2d565b60405180910390a36001905092915050565b6000600160008473ffffffffffffffffffffffffffffffffffffffff1673ffffffffffffffffffffffffffffffffffffffff16815260200190815260200160002060008373ffffffffffffffffffffffffffffffffffffffff1673ffffffffffffffffffffffffffffffffffffffff16815260200190815260200160002054905092915050565b600082821115610a0a577f4e487b7100000000000000000000000000000000000000000000000000000000600052600160045260246000fd5b8183610a169190610cd5565b905092915050565b6000808284610a2d9190610c7f565b905083811015610a66577f4e487b7100000000000000000000000000000000000000000000000000000000600052600160045260246000fd5b8091505092915050565b600081359050610a7f81610dd1565b92915050565b600081359050610a9481610de8565b92915050565b600060208284031215610aac57600080fd5b6000610aba84828501610a70565b91505092915050565b60008060408385031215610ad657600080fd5b6000610ae485828601610a70565b9250506020610af585828601610a70565b9150509250929050565b600080600060608486031215610b1457600080fd5b6000610b2286828701610a70565b9350506020610b3386828701610a70565b9250506040610b4486828701610a85565b9150509250925092565b60008060408385031215610b6157600080fd5b6000610b6f85828601610a70565b9250506020610b8085828601610a85565b9150509250929050565b610b9381610d1b565b82525050565b6000610ba482610c63565b610bae8185610c6e565b9350610bbe818560208601610d5e565b610bc781610dc0565b840191505092915050565b610bdb81610d47565b82525050565b610bea81610d51565b82525050565b6000602082019050610c056000830184610b8a565b92915050565b60006020820190508181036000830152610c258184610b99565b905092915050565b6000602082019050610c426000830184610bd2565b92915050565b6000602082019050610c5d6000830184610be1565b92915050565b600081519050919050565b600082825260208201905092915050565b6000610c8a82610d47565b9150610c9583610d47565b9250827fffffffffffffffffffffffffffffffffffffffffffffffffffffffffffffffff03821115610cca57610cc9610d91565b5b828201905092915050565b6000610ce082610d47565b9150610ceb83610d47565b925082821015610cfe57610cfd610d91565b5b828203905092915050565b6000610d1482610d27565b9050919050565b60008115159050919050565b600073ffffffffffffffffffffffffffffffffffffffff82169050919050565b6000819050919050565b600060ff82169050919050565b60005b83811015610d7c578082015181840152602081019050610d61565b83811115610d8b576000848401525b50505050565b7f4e487b7100000000000000000000000000000000000000000000000000000000600052601160045260246000fd5b6000601f19601f8301169050919050565b610dda81610d09565b8114610de557600080fd5b50565b610df181610d47565b8114610dfc57600080fd5b5056fea26469706673582212206e8549bcec8de49fefa765403af82bf83f5f3587e87fdaeafef4f52ec0f8359f64736f6c63430008000033","opcodes":"PUSH1 0x80 PUSH1 0x40 MSTORE CALLVALUE DUP1 ISZERO PUSH2 0x10 JUMPI PUSH1 0x0 DUP1 REVERT JUMPDEST POP PUSH5 0x29E8D60800 PUSH1 0x2 DUP2 SWAP1 SSTORE POP PUSH1 0x2 SLOAD PUSH1 0x0 DUP1 CALLER PUSH20 0xFFFFFFFFFFFFFFFFFFFFFFFFFFFFFFFFFFFFFFFF AND PUSH20 0xFFFFFFFFFFFFFFFFFFFFFFFFFFFFFFFFFFFFFFFF AND DUP2 MSTORE PUSH1 0x20 ADD SWAP1 DUP2 MSTORE PUSH1 0x20 ADD PUSH1 0x0 KECCAK256 DUP2 SWAP1 SSTORE POP PUSH2 0xE35 DUP1 PUSH2 0x71 PUSH1 0x0 CODECOPY PUSH1 0x0 RETURN INVALID PUSH1 0x80 PUSH1 0x40 MSTORE CALLVALUE DUP1 ISZERO PUSH2 0x10 JUMPI PUSH1 0x0 DUP1 REVERT JUMPDEST POP PUSH1 0x4 CALLDATASIZE LT PUSH2 0x9E JUMPI PUSH1 0x0 CALLDATALOAD PUSH1 0xE0 SHR DUP1 PUSH4 0x313CE567 GT PUSH2 0x66 JUMPI DUP1 PUSH4 0x313CE567 EQ PUSH2 0x15D JUMPI DUP1 PUSH4 0x70A08231 EQ PUSH2 0x17B JUMPI DUP1 PUSH4 0x95D89B41 EQ PUSH2 0x1AB JUMPI DUP1 PUSH4 0xA9059CBB EQ PUSH2 0x1C9 JUMPI DUP1 PUSH4 0xDD62ED3E EQ PUSH2 0x1F9 JUMPI PUSH2 0x9E JUMP JUMPDEST DUP1 PUSH4 0x6FDDE03 EQ PUSH2 0xA3 JUMPI DUP1 PUSH4 0x95EA7B3 EQ PUSH2 0xC1 JUMPI DUP1 PUSH4 0x18160DDD EQ PUSH2 0xF1 JUMPI DUP1 PUSH4 0x23B872DD EQ PUSH2 0x10F JUMPI DUP1 PUSH4 0x2DDBD13A EQ PUSH2 0x13F JUMPI JUMPDEST PUSH1 0x0 DUP1 REVERT JUMPDEST PUSH2 0xAB PUSH2 0x229 JUMP JUMPDEST PUSH1 0x40 MLOAD PUSH2 0xB8 SWAP2 SWAP1 PUSH2 0xC0B JUMP JUMPDEST PUSH1 0x40 MLOAD DUP1 SWAP2 SUB SWAP1 RETURN JUMPDEST PUSH2 0xDB PUSH1 0x4 DUP1 CALLDATASIZE SUB DUP2 ADD SWAP1 PUSH2 0xD6 SWAP2 SWAP1 PUSH2 0xB4E JUMP JUMPDEST PUSH2 0x262 JUMP JUMPDEST PUSH1 0x40 MLOAD PUSH2 0xE8 SWAP2 SWAP1 PUSH2 0xBF0 JUMP JUMPDEST PUSH1 0x40 MLOAD DUP1 SWAP2 SUB SWAP1 RETURN JUMPDEST PUSH2 0xF9 PUSH2 0x354 JUMP JUMPDEST PUSH1 0x40 MLOAD PUSH2 0x106 SWAP2 SWAP1 PUSH2 0xC2D JUMP JUMPDEST PUSH1 0x40 MLOAD DUP1 SWAP2 SUB SWAP1 RETURN JUMPDEST PUSH2 0x129 PUSH1 0x4 DUP1 CALLDATASIZE SUB DUP2 ADD SWAP1 PUSH2 0x124 SWAP2 SWAP1 PUSH2 0xAFF JUMP JUMPDEST PUSH2 0x35E JUMP JUMPDEST PUSH1 0x40 MLOAD PUSH2 0x136 SWAP2 SWAP1 PUSH2 0xBF0 JUMP JUMPDEST PUSH1 0x40 MLOAD DUP1 SWAP2 SUB SWAP1 RETURN JUMPDEST PUSH2 0x147 PUSH2 0x6D9 JUMP JUMPDEST PUSH1 0x40 MLOAD PUSH2 0x154 SWAP2 SWAP1 PUSH2 0xC2D JUMP JUMPDEST PUSH1 0x40 MLOAD DUP1 SWAP2 SUB SWAP1 RETURN JUMPDEST PUSH2 0x165 PUSH2 0x6E2 JUMP JUMPDEST PUSH1 0x40 MLOAD PUSH2 0x172 SWAP2 SWAP1 PUSH2 0xC48 JUMP JUMPDEST PUSH1 0x40 MLOAD DUP1 SWAP2 SUB SWAP1 RETURN JUMPDEST PUSH2 0x195 PUSH1 0x4 DUP1 CALLDATASIZE SUB DUP2 ADD SWAP1 PUSH2 0x190 SWAP2 SWAP1 PUSH2 0xA9A JUMP JUMPDEST PUSH2 0x6E7 JUMP JUMPDEST PUSH1 0x40 MLOAD PUSH2 0x1A2 SWAP2 SWAP1 PUSH2 0xC2D JUMP JUMPDEST PUSH1 0x40 MLOAD DUP1 SWAP2 SUB SWAP1 RETURN JUMPDEST PUSH2 0x1B3 PUSH2 0x72F JUMP JUMPDEST PUSH1 0x40 MLOAD PUSH2 0x1C0 SWAP2 SWAP1 PUSH2 0xC0B JUMP JUMPDEST PUSH1 0x40 MLOAD DUP1 SWAP2 SUB SWAP1 RETURN JUMPDEST PUSH2 0x1E3 PUSH1 0x4 DUP1 CALLDATASIZE SUB DUP2 ADD SWAP1 PUSH2 0x1DE SWAP2 SWAP1 PUSH2 0xB4E JUMP JUMPDEST PUSH2 0x768 JUMP JUMPDEST PUSH1 0x40 MLOAD PUSH2 0x1F0 SWAP2 SWAP1 PUSH2 0xBF0 JUMP JUMPDEST PUSH1 0x40 MLOAD DUP1 SWAP2 SUB SWAP1 RETURN JUMPDEST PUSH2 0x213 PUSH1 0x4 DUP1 CALLDATASIZE SUB DUP2 ADD SWAP1 PUSH2 0x20E SWAP2 SWAP1 PUSH2 0xAC3 JUMP JUMPDEST PUSH2 0x94A JUMP JUMPDEST PUSH1 0x40 MLOAD PUSH2 0x220 SWAP2 SWAP1 PUSH2 0xC2D JUMP JUMPDEST PUSH1 0x40 MLOAD DUP1 SWAP2 SUB SWAP1 RETURN JUMPDEST PUSH1 0x40 MLOAD DUP1 PUSH1 0x40 ADD PUSH1 0x40 MSTORE DUP1 PUSH1 0xC DUP2 MSTORE PUSH1 0x20 ADD PUSH32 0x4D4F524943484520434F494E0000000000000000000000000000000000000000 DUP2 MSTORE POP DUP2 JUMP JUMPDEST PUSH1 0x0 DUP2 PUSH1 0x1 PUSH1 0x0 CALLER PUSH20 0xFFFFFFFFFFFFFFFFFFFFFFFFFFFFFFFFFFFFFFFF AND PUSH20 0xFFFFFFFFFFFFFFFFFFFFFFFFFFFFFFFFFFFFFFFF AND DUP2 MSTORE PUSH1 0x20 ADD SWAP1 DUP2 MSTORE PUSH1 0x20 ADD PUSH1 0x0 KECCAK256 PUSH1 0x0 DUP6 PUSH20 0xFFFFFFFFFFFFFFFFFFFFFFFFFFFFFFFFFFFFFFFF AND PUSH20 0xFFFFFFFFFFFFFFFFFFFFFFFFFFFFFFFFFFFFFFFF AND DUP2 MSTORE PUSH1 0x20 ADD SWAP1 DUP2 MSTORE PUSH1 0x20 ADD PUSH1 0x0 KECCAK256 DUP2 SWAP1 SSTORE POP DUP3 PUSH20 0xFFFFFFFFFFFFFFFFFFFFFFFFFFFFFFFFFFFFFFFF AND CALLER PUSH20 0xFFFFFFFFFFFFFFFFFFFFFFFFFFFFFFFFFFFFFFFF AND PUSH32 0x8C5BE1E5EBEC7D5BD14F71427D1E84F3DD0314C0F7B2291E5B200AC8C7C3B925 DUP5 PUSH1 0x40 MLOAD PUSH2 0x342 SWAP2 SWAP1 PUSH2 0xC2D JUMP JUMPDEST PUSH1 0x40 MLOAD DUP1 SWAP2 SUB SWAP1 LOG3 PUSH1 0x1 SWAP1 POP SWAP3 SWAP2 POP POP JUMP JUMPDEST PUSH1 0x0 PUSH1 0x2 SLOAD SWAP1 POP SWAP1 JUMP JUMPDEST PUSH1 0x0 DUP1 PUSH1 0x0 DUP6 PUSH20 0xFFFFFFFFFFFFFFFFFFFFFFFFFFFFFFFFFFFFFFFF AND PUSH20 0xFFFFFFFFFFFFFFFFFFFFFFFFFFFFFFFFFFFFFFFF AND DUP2 MSTORE PUSH1 0x20 ADD SWAP1 DUP2 MSTORE PUSH1 0x20 ADD PUSH1 0x0 KECCAK256 SLOAD DUP3 GT ISZERO PUSH2 0x3AB JUMPI PUSH1 0x0 DUP1 REVERT JUMPDEST PUSH1 0x1 PUSH1 0x0 DUP6 PUSH20 0xFFFFFFFFFFFFFFFFFFFFFFFFFFFFFFFFFFFFFFFF AND PUSH20 0xFFFFFFFFFFFFFFFFFFFFFFFFFFFFFFFFFFFFFFFF AND DUP2 MSTORE PUSH1 0x20 ADD SWAP1 DUP2 MSTORE PUSH1 0x20 ADD PUSH1 0x0 KECCAK256 PUSH1 0x0 CALLER PUSH20 0xFFFFFFFFFFFFFFFFFFFFFFFFFFFFFFFFFFFFFFFF AND PUSH20 0xFFFFFFFFFFFFFFFFFFFFFFFFFFFFFFFFFFFFFFFF AND DUP2 MSTORE PUSH1 0x20 ADD SWAP1 DUP2 MSTORE PUSH1 0x20 ADD PUSH1 0x0 KECCAK256 SLOAD DUP3 GT ISZERO PUSH2 0x434 JUMPI PUSH1 0x0 DUP1 REVERT JUMPDEST PUSH2 0x485 DUP3 PUSH1 0x0 DUP1 DUP8 PUSH20 0xFFFFFFFFFFFFFFFFFFFFFFFFFFFFFFFFFFFFFFFF AND PUSH20 0xFFFFFFFFFFFFFFFFFFFFFFFFFFFFFFFFFFFFFFFF AND DUP2 MSTORE PUSH1 0x20 ADD SWAP1 DUP2 MSTORE PUSH1 0x20 ADD PUSH1 0x0 KECCAK256 SLOAD PUSH2 0x9D1 SWAP1 SWAP2 SWAP1 PUSH4 0xFFFFFFFF AND JUMP JUMPDEST PUSH1 0x0 DUP1 DUP7 PUSH20 0xFFFFFFFFFFFFFFFFFFFFFFFFFFFFFFFFFFFFFFFF AND PUSH20 0xFFFFFFFFFFFFFFFFFFFFFFFFFFFFFFFFFFFFFFFF AND DUP2 MSTORE PUSH1 0x20 ADD SWAP1 DUP2 MSTORE PUSH1 0x20 ADD PUSH1 0x0 KECCAK256 DUP2 SWAP1 SSTORE POP PUSH2 0x556 DUP3 PUSH1 0x1 PUSH1 0x0 DUP8 PUSH20 0xFFFFFFFFFFFFFFFFFFFFFFFFFFFFFFFFFFFFFFFF AND PUSH20 0xFFFFFFFFFFFFFFFFFFFFFFFFFFFFFFFFFFFFFFFF AND DUP2 MSTORE PUSH1 0x20 ADD SWAP1 DUP2 MSTORE PUSH1 0x20 ADD PUSH1 0x0 KECCAK256 PUSH1 0x0 CALLER PUSH20 0xFFFFFFFFFFFFFFFFFFFFFFFFFFFFFFFFFFFFFFFF AND PUSH20 0xFFFFFFFFFFFFFFFFFFFFFFFFFFFFFFFFFFFFFFFF AND DUP2 MSTORE PUSH1 0x20 ADD SWAP1 DUP2 MSTORE PUSH1 0x20 ADD PUSH1 0x0 KECCAK256 SLOAD PUSH2 0x9D1 SWAP1 SWAP2 SWAP1 PUSH4 0xFFFFFFFF AND JUMP JUMPDEST PUSH1 0x1 PUSH1 0x0 DUP7 PUSH20 0xFFFFFFFFFFFFFFFFFFFFFFFFFFFFFFFFFFFFFFFF AND PUSH20 0xFFFFFFFFFFFFFFFFFFFFFFFFFFFFFFFFFFFFFFFF AND DUP2 MSTORE PUSH1 0x20 ADD SWAP1 DUP2 MSTORE PUSH1 0x20 ADD PUSH1 0x0 KECCAK256 PUSH1 0x0 CALLER PUSH20 0xFFFFFFFFFFFFFFFFFFFFFFFFFFFFFFFFFFFFFFFF AND PUSH20 0xFFFFFFFFFFFFFFFFFFFFFFFFFFFFFFFFFFFFFFFF AND DUP2 MSTORE PUSH1 0x20 ADD SWAP1 DUP2 MSTORE PUSH1 0x20 ADD PUSH1 0x0 KECCAK256 DUP2 SWAP1 SSTORE POP PUSH2 0x627 DUP3 PUSH1 0x0 DUP1 DUP7 PUSH20 0xFFFFFFFFFFFFFFFFFFFFFFFFFFFFFFFFFFFFFFFF AND PUSH20 0xFFFFFFFFFFFFFFFFFFFFFFFFFFFFFFFFFFFFFFFF AND DUP2 MSTORE PUSH1 0x20 ADD SWAP1 DUP2 MSTORE PUSH1 0x20 ADD PUSH1 0x0 KECCAK256 SLOAD PUSH2 0xA1E SWAP1 SWAP2 SWAP1 PUSH4 0xFFFFFFFF AND JUMP JUMPDEST PUSH1 0x0 DUP1 DUP6 PUSH20 0xFFFFFFFFFFFFFFFFFFFFFFFFFFFFFFFFFFFFFFFF AND PUSH20 0xFFFFFFFFFFFFFFFFFFFFFFFFFFFFFFFFFFFFFFFF AND DUP2 MSTORE PUSH1 0x20 ADD SWAP1 DUP2 MSTORE PUSH1 0x20 ADD PUSH1 0x0 KECCAK256 DUP2 SWAP1 SSTORE POP DUP3 PUSH20 0xFFFFFFFFFFFFFFFFFFFFFFFFFFFFFFFFFFFFFFFF AND DUP5 PUSH20 0xFFFFFFFFFFFFFFFFFFFFFFFFFFFFFFFFFFFFFFFF AND PUSH32 0xDDF252AD1BE2C89B69C2B068FC378DAA952BA7F163C4A11628F55A4DF523B3EF DUP5 PUSH1 0x40 MLOAD PUSH2 0x6C6 SWAP2 SWAP1 PUSH2 0xC2D JUMP JUMPDEST PUSH1 0x40 MLOAD DUP1 SWAP2 SUB SWAP1 LOG3 PUSH1 0x1 SWAP1 POP SWAP4 SWAP3 POP POP POP JUMP JUMPDEST PUSH5 0x29E8D60800 DUP2 JUMP JUMPDEST PUSH1 0x12 DUP2 JUMP JUMPDEST PUSH1 0x0 DUP1 PUSH1 0x0 DUP4 PUSH20 0xFFFFFFFFFFFFFFFFFFFFFFFFFFFFFFFFFFFFFFFF AND PUSH20 0xFFFFFFFFFFFFFFFFFFFFFFFFFFFFFFFFFFFFFFFF AND DUP2 MSTORE PUSH1 0x20 ADD SWAP1 DUP2 MSTORE PUSH1 0x20 ADD PUSH1 0x0 KECCAK256 SLOAD SWAP1 POP SWAP2 SWAP1 POP JUMP JUMPDEST PUSH1 0x40 MLOAD DUP1 PUSH1 0x40 ADD PUSH1 0x40 MSTORE DUP1 PUSH1 0x5 DUP2 MSTORE PUSH1 0x20 ADD PUSH32 0x4D4F524963000000000000000000000000000000000000000000000000000000 DUP2 MSTORE POP DUP2 JUMP JUMPDEST PUSH1 0x0 DUP1 PUSH1 0x0 CALLER PUSH20 0xFFFFFFFFFFFFFFFFFFFFFFFFFFFFFFFFFFFFFFFF AND PUSH20 0xFFFFFFFFFFFFFFFFFFFFFFFFFFFFFFFFFFFFFFFF AND DUP2 MSTORE PUSH1 0x20 ADD SWAP1 DUP2 MSTORE PUSH1 0x20 ADD PUSH1 0x0 KECCAK256 SLOAD DUP3 GT ISZERO PUSH2 0x7B5 JUMPI PUSH1 0x0 DUP1 REVERT JUMPDEST PUSH2 0x806 DUP3 PUSH1 0x0 DUP1 CALLER PUSH20 0xFFFFFFFFFFFFFFFFFFFFFFFFFFFFFFFFFFFFFFFF AND PUSH20 0xFFFFFFFFFFFFFFFFFFFFFFFFFFFFFFFFFFFFFFFF AND DUP2 MSTORE PUSH1 0x20 ADD SWAP1 DUP2 MSTORE PUSH1 0x20 ADD PUSH1 0x0 KECCAK256 SLOAD PUSH2 0x9D1 SWAP1 SWAP2 SWAP1 PUSH4 0xFFFFFFFF AND JUMP JUMPDEST PUSH1 0x0 DUP1 CALLER PUSH20 0xFFFFFFFFFFFFFFFFFFFFFFFFFFFFFFFFFFFFFFFF AND PUSH20 0xFFFFFFFFFFFFFFFFFFFFFFFFFFFFFFFFFFFFFFFF AND DUP2 MSTORE PUSH1 0x20 ADD SWAP1 DUP2 MSTORE PUSH1 0x20 ADD PUSH1 0x0 KECCAK256 DUP2 SWAP1 SSTORE POP PUSH2 0x899 DUP3 PUSH1 0x0 DUP1 DUP7 PUSH20 0xFFFFFFFFFFFFFFFFFFFFFFFFFFFFFFFFFFFFFFFF AND PUSH20 0xFFFFFFFFFFFFFFFFFFFFFFFFFFFFFFFFFFFFFFFF AND DUP2 MSTORE PUSH1 0x20 ADD SWAP1 DUP2 MSTORE PUSH1 0x20 ADD PUSH1 0x0 KECCAK256 SLOAD PUSH2 0xA1E SWAP1 SWAP2 SWAP1 PUSH4 0xFFFFFFFF AND JUMP JUMPDEST PUSH1 0x0 DUP1 DUP6 PUSH20 0xFFFFFFFFFFFFFFFFFFFFFFFFFFFFFFFFFFFFFFFF AND PUSH20 0xFFFFFFFFFFFFFFFFFFFFFFFFFFFFFFFFFFFFFFFF AND DUP2 MSTORE PUSH1 0x20 ADD SWAP1 DUP2 MSTORE PUSH1 0x20 ADD PUSH1 0x0 KECCAK256 DUP2 SWAP1 SSTORE POP DUP3 PUSH20 0xFFFFFFFFFFFFFFFFFFFFFFFFFFFFFFFFFFFFFFFF AND CALLER PUSH20 0xFFFFFFFFFFFFFFFFFFFFFFFFFFFFFFFFFFFFFFFF AND PUSH32 0xDDF252AD1BE2C89B69C2B068FC378DAA952BA7F163C4A11628F55A4DF523B3EF DUP5 PUSH1 0x40 MLOAD PUSH2 0x938 SWAP2 SWAP1 PUSH2 0xC2D JUMP JUMPDEST PUSH1 0x40 MLOAD DUP1 SWAP2 SUB SWAP1 LOG3 PUSH1 0x1 SWAP1 POP SWAP3 SWAP2 POP POP JUMP JUMPDEST PUSH1 0x0 PUSH1 0x1 PUSH1 0x0 DUP5 PUSH20 0xFFFFFFFFFFFFFFFFFFFFFFFFFFFFFFFFFFFFFFFF AND PUSH20 0xFFFFFFFFFFFFFFFFFFFFFFFFFFFFFFFFFFFFFFFF AND DUP2 MSTORE PUSH1 0x20 ADD SWAP1 DUP2 MSTORE PUSH1 0x20 ADD PUSH1 0x0 KECCAK256 PUSH1 0x0 DUP4 PUSH20 0xFFFFFFFFFFFFFFFFFFFFFFFFFFFFFFFFFFFFFFFF AND PUSH20 0xFFFFFFFFFFFFFFFFFFFFFFFFFFFFFFFFFFFFFFFF AND DUP2 MSTORE PUSH1 0x20 ADD SWAP1 DUP2 MSTORE PUSH1 0x20 ADD PUSH1 0x0 KECCAK256 SLOAD SWAP1 POP SWAP3 SWAP2 POP POP JUMP JUMPDEST PUSH1 0x0 DUP3 DUP3 GT ISZERO PUSH2 0xA0A JUMPI PUSH32 0x4E487B7100000000000000000000000000000000000000000000000000000000 PUSH1 0x0 MSTORE PUSH1 0x1 PUSH1 0x4 MSTORE PUSH1 0x24 PUSH1 0x0 REVERT JUMPDEST DUP2 DUP4 PUSH2 0xA16 SWAP2 SWAP1 PUSH2 0xCD5 JUMP JUMPDEST SWAP1 POP SWAP3 SWAP2 POP POP JUMP JUMPDEST PUSH1 0x0 DUP1 DUP3 DUP5 PUSH2 0xA2D SWAP2 SWAP1 PUSH2 0xC7F JUMP JUMPDEST SWAP1 POP DUP4 DUP2 LT ISZERO PUSH2 0xA66 JUMPI PUSH32 0x4E487B7100000000000000000000000000000000000000000000000000000000 PUSH1 0x0 MSTORE PUSH1 0x1 PUSH1 0x4 MSTORE PUSH1 0x24 PUSH1 0x0 REVERT JUMPDEST DUP1 SWAP2 POP POP SWAP3 SWAP2 POP POP JUMP JUMPDEST PUSH1 0x0 DUP2 CALLDATALOAD SWAP1 POP PUSH2 0xA7F DUP2 PUSH2 0xDD1 JUMP JUMPDEST SWAP3 SWAP2 POP POP JUMP JUMPDEST PUSH1 0x0 DUP2 CALLDATALOAD SWAP1 POP PUSH2 0xA94 DUP2 PUSH2 0xDE8 JUMP JUMPDEST SWAP3 SWAP2 POP POP JUMP JUMPDEST PUSH1 0x0 PUSH1 0x20 DUP3 DUP5 SUB SLT ISZERO PUSH2 0xAAC JUMPI PUSH1 0x0 DUP1 REVERT JUMPDEST PUSH1 0x0 PUSH2 0xABA DUP5 DUP3 DUP6 ADD PUSH2 0xA70 JUMP JUMPDEST SWAP2 POP POP SWAP3 SWAP2 POP POP JUMP JUMPDEST PUSH1 0x0 DUP1 PUSH1 0x40 DUP4 DUP6 SUB SLT ISZERO PUSH2 0xAD6 JUMPI PUSH1 0x0 DUP1 REVERT JUMPDEST PUSH1 0x0 PUSH2 0xAE4 DUP6 DUP3 DUP7 ADD PUSH2 0xA70 JUMP JUMPDEST SWAP3 POP POP PUSH1 0x20 PUSH2 0xAF5 DUP6 DUP3 DUP7 ADD PUSH2 0xA70 JUMP JUMPDEST SWAP2 POP POP SWAP3 POP SWAP3 SWAP1 POP JUMP JUMPDEST PUSH1 0x0 DUP1 PUSH1 0x0 PUSH1 0x60 DUP5 DUP7 SUB SLT ISZERO PUSH2 0xB14 JUMPI PUSH1 0x0 DUP1 REVERT JUMPDEST PUSH1 0x0 PUSH2 0xB22 DUP7 DUP3 DUP8 ADD PUSH2 0xA70 JUMP JUMPDEST SWAP4 POP POP PUSH1 0x20 PUSH2 0xB33 DUP7 DUP3 DUP8 ADD PUSH2 0xA70 JUMP JUMPDEST SWAP3 POP POP PUSH1 0x40 PUSH2 0xB44 DUP7 DUP3 DUP8 ADD PUSH2 0xA85 JUMP JUMPDEST SWAP2 POP POP SWAP3 POP SWAP3 POP SWAP3 JUMP JUMPDEST PUSH1 0x0 DUP1 PUSH1 0x40 DUP4 DUP6 SUB SLT ISZERO PUSH2 0xB61 JUMPI PUSH1 0x0 DUP1 REVERT JUMPDEST PUSH1 0x0 PUSH2 0xB6F DUP6 DUP3 DUP7 ADD PUSH2 0xA70 JUMP JUMPDEST SWAP3 POP POP PUSH1 0x20 PUSH2 0xB80 DUP6 DUP3 DUP7 ADD PUSH2 0xA85 JUMP JUMPDEST SWAP2 POP POP SWAP3 POP SWAP3 SWAP1 POP JUMP JUMPDEST PUSH2 0xB93 DUP2 PUSH2 0xD1B JUMP JUMPDEST DUP3 MSTORE POP POP JUMP JUMPDEST PUSH1 0x0 PUSH2 0xBA4 DUP3 PUSH2 0xC63 JUMP JUMPDEST PUSH2 0xBAE DUP2 DUP6 PUSH2 0xC6E JUMP JUMPDEST SWAP4 POP PUSH2 0xBBE DUP2 DUP6 PUSH1 0x20 DUP7 ADD PUSH2 0xD5E JUMP JUMPDEST PUSH2 0xBC7 DUP2 PUSH2 0xDC0 JUMP JUMPDEST DUP5 ADD SWAP2 POP POP SWAP3 SWAP2 POP POP JUMP JUMPDEST PUSH2 0xBDB DUP2 PUSH2 0xD47 JUMP JUMPDEST DUP3 MSTORE POP POP JUMP JUMPDEST PUSH2 0xBEA DUP2 PUSH2 0xD51 JUMP JUMPDEST DUP3 MSTORE POP POP JUMP JUMPDEST PUSH1 0x0 PUSH1 0x20 DUP3 ADD SWAP1 POP PUSH2 0xC05 PUSH1 0x0 DUP4 ADD DUP5 PUSH2 0xB8A JUMP JUMPDEST SWAP3 SWAP2 POP POP JUMP JUMPDEST PUSH1 0x0 PUSH1 0x20 DUP3 ADD SWAP1 POP DUP2 DUP2 SUB PUSH1 0x0 DUP4 ADD MSTORE PUSH2 0xC25 DUP2 DUP5 PUSH2 0xB99 JUMP JUMPDEST SWAP1 POP SWAP3 SWAP2 POP POP JUMP JUMPDEST PUSH1 0x0 PUSH1 0x20 DUP3 ADD SWAP1 POP PUSH2 0xC42 PUSH1 0x0 DUP4 ADD DUP5 PUSH2 0xBD2 JUMP JUMPDEST SWAP3 SWAP2 POP POP JUMP JUMPDEST PUSH1 0x0 PUSH1 0x20 DUP3 ADD SWAP1 POP PUSH2 0xC5D PUSH1 0x0 DUP4 ADD DUP5 PUSH2 0xBE1 JUMP JUMPDEST SWAP3 SWAP2 POP POP JUMP JUMPDEST PUSH1 0x0 DUP2 MLOAD SWAP1 POP SWAP2 SWAP1 POP JUMP JUMPDEST PUSH1 0x0 DUP3 DUP3 MSTORE PUSH1 0x20 DUP3 ADD SWAP1 POP SWAP3 SWAP2 POP POP JUMP JUMPDEST PUSH1 0x0 PUSH2 0xC8A DUP3 PUSH2 0xD47 JUMP JUMPDEST SWAP2 POP PUSH2 0xC95 DUP4 PUSH2 0xD47 JUMP JUMPDEST SWAP3 POP DUP3 PUSH32 0xFFFFFFFFFFFFFFFFFFFFFFFFFFFFFFFFFFFFFFFFFFFFFFFFFFFFFFFFFFFFFFFF SUB DUP3 GT ISZERO PUSH2 0xCCA JUMPI PUSH2 0xCC9 PUSH2 0xD91 JUMP JUMPDEST JUMPDEST DUP3 DUP3 ADD SWAP1 POP SWAP3 SWAP2 POP POP JUMP JUMPDEST PUSH1 0x0 PUSH2 0xCE0 DUP3 PUSH2 0xD47 JUMP JUMPDEST SWAP2 POP PUSH2 0xCEB DUP4 PUSH2 0xD47 JUMP JUMPDEST SWAP3 POP DUP3 DUP3 LT ISZERO PUSH2 0xCFE JUMPI PUSH2 0xCFD PUSH2 0xD91 JUMP JUMPDEST JUMPDEST DUP3 DUP3 SUB SWAP1 POP SWAP3 SWAP2 POP POP JUMP JUMPDEST PUSH1 0x0 PUSH2 0xD14 DUP3 PUSH2 0xD27 JUMP JUMPDEST SWAP1 POP SWAP2 SWAP1 POP JUMP JUMPDEST PUSH1 0x0 DUP2 ISZERO ISZERO SWAP1 POP SWAP2 SWAP1 POP JUMP JUMPDEST PUSH1 0x0 PUSH20 0xFFFFFFFFFFFFFFFFFFFFFFFFFFFFFFFFFFFFFFFF DUP3 AND SWAP1 POP SWAP2 SWAP1 POP JUMP JUMPDEST PUSH1 0x0 DUP2 SWAP1 POP SWAP2 SWAP1 POP JUMP JUMPDEST PUSH1 0x0 PUSH1 0xFF DUP3 AND SWAP1 POP SWAP2 SWAP1 POP JUMP JUMPDEST PUSH1 0x0 JUMPDEST DUP4 DUP2 LT ISZERO PUSH2 0xD7C JUMPI DUP1 DUP3 ADD MLOAD DUP2 DUP5 ADD MSTORE PUSH1 0x20 DUP2 ADD SWAP1 POP PUSH2 0xD61 JUMP JUMPDEST DUP4 DUP2 GT ISZERO PUSH2 0xD8B JUMPI PUSH1 0x0 DUP5 DUP5 ADD MSTORE JUMPDEST POP POP POP POP JUMP JUMPDEST PUSH32 0x4E487B7100000000000000000000000000000000000000000000000000000000 PUSH1 0x0 MSTORE PUSH1 0x11 PUSH1 0x4 MSTORE PUSH1 0x24 PUSH1 0x0 REVERT JUMPDEST PUSH1 0x0 PUSH1 0x1F NOT PUSH1 0x1F DUP4 ADD AND SWAP1 POP SWAP2 SWAP1 POP JUMP JUMPDEST PUSH2 0xDDA DUP2 PUSH2 0xD09 JUMP JUMPDEST DUP2 EQ PUSH2 0xDE5 JUMPI PUSH1 0x0 DUP1 REVERT JUMPDEST POP JUMP JUMPDEST PUSH2 0xDF1 DUP2 PUSH2 0xD47 JUMP JUMPDEST DUP2 EQ PUSH2 0xDFC JUMPI PUSH1 0x0 DUP1 REVERT JUMPDEST POP JUMP INVALID LOG2 PUSH5 0x6970667358 0x22 SLT KECCAK256 PUSH15 0x8549BCEC8DE49FEFA765403AF82BF8 EXTCODEHASH 0x5F CALLDATALOAD DUP8 0xE8 PUSH32 0xDAEAFEF4F52EC0F8359F64736F6C634300080000330000000000000000000000 "},"gasEstimates":{"creation":{"codeDepositCost":"727400","executionCost":"41677","totalCost":"769077"},"external":{"allowance(address,address)":"infinite","approve(address,uint256)":"infinite","balanceOf(address)":"1563","decimals()":"335","name()":"infinite","symbol()":"infinite","total()":"418","totalSupply()":"1182","transfer(address,uint256)":"infinite","transferFrom(address,address,uint256)":"infinite"}},"methodIdentifiers":{"allowance(address,address)":"dd62ed3e","approve(address,uint256)":"095ea7b3","balanceOf(address)":"70a08231","decimals()":"313ce567","name()":"06fdde03","symbol()":"95d89b41","total()":"2ddbd13a","totalSupply()":"18160ddd","transfer(address,uint256)":"a9059cbb","transferFrom(address,address,uint256)":"23b872dd"}},"storageLayout":{"storage":[{"astId":86,"contract":"moricheCoin.sol:MoriCoin","label":"balances","offset":0,"slot":"0","type":"t_mapping(t_address,t_uint256)"},{"astId":92,"contract":"moricheCoin.sol:MoriCoin","label":"allowed","offset":0,"slot":"1","type":"t_mapping(t_address,t_mapping(t_address,t_uint256))"},{"astId":94,"contract":"moricheCoin.sol:MoriCoin","label":"totalSupply_","offset":0,"slot":"2","type":"t_uint256"}],"types":{"t_address":{"encoding":"inplace","label":"address","numberOfBytes":"20"},"t_mapping(t_address,t_mapping(t_address,t_uint256))":{"encoding":"mapping","key":"t_address","label":"mapping(address => mapping(address => uint256))","numberOfBytes":"32","value":"t_mapping(t_address,t_uint256)"},"t_mapping(t_address,t_uint256)":{"encoding":"mapping","key":"t_address","label":"mapping(address => uint256)","numberOfBytes":"32","value":"t_uint256"},"t_uint256":{"encoding":"inplace","label":"uint256","numberOfBytes":"32"}}},"userdoc":{"kind":"user","methods":{},"version":1}}